:020000040800F2
:1000000000400120693900083D37000843370008E7
:10001000493700084F370008553700080000000036
:100020000000000000000000000000005B37000836
:100030006737000800000000733700087F370008AA
:10004000B9390008B9390008B9390008B9390008C8
:10005000B9390008B9390008B9390008B9390008B8
:10006000B9390008B9390008B9390008B9390008A8
:10007000B9390008B9390008B9390008B939000898
:10008000B9390008B9390008B9390008B939000888
:10009000B9390008B9390008B9390008B939000878
:1000A000B9390008B9390008B9390008B939000868
:1000B000B9390008B9390008B9390008B939000858
:1000C000B9390008B9390008B9390008B939000848
:1000D000B93900088D370008A1370008B939000880
:1000E000B9390008B9390008B9390008B939000828
:1000F000B9390008B9390008B9390008B939000818
:10010000B9390008B9390008B9390008B939000807
:10011000B5370008B9390008C9370008B9390008EF
:10012000B9390008B9390008B9390008B9390008E7
:10013000B93900080000000000000000B9390008CB
:10014000B9390008B9390008B9390008B9390008C7
:10015000B9390008B9390008B9390008B9390008B7
:10016000B9390008B9390008B9390008B9390008A7
:10017000B9390008B939000800000000000000008B
:04018000B939000881
:1001880010B5054C237833B9044B13B10448AFF3C9
:1001980000800123237010BD080200200000000029
:1001A800D0AA000808B5034B1BB103490348AFF3B5
:1001B800008008BD000000000C020020D0AA000842
:1001C80010F8012B11F8013B012A28BF9A42F7D0F9
:1001D800D01A7047034613F8012B002AFBD1181ACE
:1001E8000138704781F0004102E000BF83F000430E
:1001F80030B54FEA41044FEA430594EA050F08BFBA
:1002080090EA020F1FBF54EA000C55EA020C7FEA7D
:10021800645C7FEA655C00F0E2804FEA5454D4EBFA
:100228005555B8BF6D420CDD2C4480EA020281EAC4
:10023800030382EA000083EA010180EA020281EAFC
:100248000303362D88BF30BD11F0004F4FEA01314E
:100258004FF4801C4CEA113102D0404261EB41015D
:1002680013F0004F4FEA03334CEA133302D05242E3
:1002780063EB430394EA050F00F0A780A4F101049F
:10028800D5F1200E0DDB02FA0EFC22FA05F28018D9
:1002980041F1000103FA0EF2801843FA05F35941BF
:1002A8000EE0A5F120050EF1200E012A03FA0EFC3E
:1002B80028BF4CF0020C43FA05F3C01851EBE37168
:1002C80001F0004507D54FF0000EDCF1000C7EEB85
:1002D80000006EEB0101B1F5801F1BD3B1F5001FC3
:1002E8000CD349085FEA30004FEA3C0C04F10104E2
:1002F8004FEA445212F5800F80F09A80BCF1004F0B
:1003080008BF5FEA500C50F1000041EB045141EA8C
:10031800050130BD5FEA4C0C404141EB0101013C55
:1003280028BFB1F5801FE9D291F0000F04BF014644
:100338000020B1FA81F308BF2033A3F10B03B3F116
:1003480020020CDA0C3208DD02F1140CC2F10C02A6
:1003580001FA0CF021FA02F10CE002F11402D8BF04
:10036800C2F1200C01FA02F120FA0CFCDCBF41EAD0
:100378000C019040E41AA2BF01EB0451294330BD9F
:100388006FEA04041F3C1CDA0C340EDC04F114047C
:10039800C4F1200220FA04F001FA02F340EA030053
:1003A80021FA04F345EA030130BDC4F10C04C4F199
:1003B800200220FA02F001FA04F340EA0300294679
:1003C80030BD21FA04F0294630BD94F0000F83F4C3
:1003D800801306BF81F480110134013D4EE77FEAA6
:1003E800645C18BF7FEA655C29D094EA050F08BFF2
:1003F80090EA020F05D054EA000C04BF19461046D3
:1004080030BD91EA030F1EBF0021002030BD5FEA16
:10041800545C05D14000494128BF41F0004130BD3E
:1004280014F580043CBF01F5801130BD01F0004592
:1004380045F0FE4141F470014FF0000030BD7FEA05
:10044800645C1ABF194610467FEA655C1CBF0B4600
:10045800024650EA013406BF52EA033591EA030F17
:1004680041F4002130BD00BF90F0000F04BF00210F
:10047800704730B54FF4806404F132044FF0000542
:100488004FF0000150E700BF90F0000F04BF0021BB
:10049800704730B54FF4806404F1320410F0004521
:1004A80048BF40424FF000013EE700BF42004FEA1C
:1004B800E2014FEA31014FEA02701FBF12F07F4399
:1004C80093F07F4F81F06051704732F07F4208BF50
:1004D800704793F07F4F04BF41F40021704730B557
:1004E8004FF4607401F0004521F000411CE700BFA3
:1004F80050EA010208BF704730B54FF000050AE026
:1005080050EA010208BF704730B511F0004502D526
:10051800404261EB41014FF4806404F132045FEA28
:10052800915C3FF4D8AE4FF003025FEADC0C18BFD1
:1005380003325FEADC0C18BF033202EBDC02C2F1C3
:10054800200300FA03FC20FA02F001FA03FE40EA55
:100558000E0021FA02F11444BDE600BF70B54FF059
:10056800FF0C4CF4E06C1CEA11541DBF1CEA135537
:1005780094EA0C0F95EA0C0F00F0DEF82C4481EA9F
:10058800030621EA4C5123EA4C5350EA013518BFBF
:1005980052EA033541F4801143F4801338D0A0FBAC
:1005A80002CE4FF00005E1FB02E506F00042E0FB59
:1005B80003E54FF00006E1FB03569CF0000F18BF5F
:1005C8004EF0010EA4F1FF04B6F5007F64F5407407
:1005D80004D25FEA4E0E6D4146EB060642EAC6219A
:1005E80041EA55514FEAC52040EA5E504FEACE2E07
:1005F800B4F1FD0C88BFBCF5E06F1ED8BEF1004F0A
:1006080008BF5FEA500E50F1000041EB045170BD85
:1006180006F0004646EA010140EA020081EA0301C9
:10062800B4EB5C04C2BFD4EB0C0541EA045170BDC5
:1006380041F480114FF0000E013C00F3AB8014F13F
:10064800360FDEBF002001F0004170BDC4F1000488
:10065800203C35DA0C341BDC04F11404C4F1200509
:1006680000FA05F320FA04F001FA05F240EA020064
:1006780001F0004221F0004110EBD37021FA04F69A
:1006880042EB06015EEA430E08BF20EAD37070BD54
:10069800C4F10C04C4F1200500FA04F320FA05F0B3
:1006A80001FA04F240EA020001F0004110EBD370B5
:1006B80041F100015EEA430E08BF20EAD37070BD25
:1006C800C4F1200500FA05F24EEA020E20FA04F3FE
:1006D80001FA05F243EA020321FA04F001F00041AD
:1006E80021FA04F220EA020000EBD3705EEA430E1E
:1006F80008BF20EAD37070BD94F0000F0FD101F04D
:100708000046400041EB010111F4801F08BF013C85
:10071800F7D041EA060195F0000F18BF704703F0C3
:100728000046520043EB030313F4801F08BF013D4A
:10073800F7D043EA0603704794EA0C0F0CEA135506
:1007480018BF95EA0C0F0CD050EA410618BF52EAC0
:100758004306D1D181EA030101F000414FF00000C6
:1007680070BD50EA410606BF1046194652EA4306D4
:1007780019D094EA0C0F02D150EA013613D195EA48
:100788000C0F05D152EA03361CBF104619460AD190
:1007980081EA030101F0004141F0FE4141F470019A
:1007A8004FF0000070BD41F0FE4141F4780170BD8A
:1007B80070B54FF0FF0C4CF4E06C1CEA11541DBFEF
:1007C8001CEA135594EA0C0F95EA0C0F00F0A7F8F1
:1007D800A4EB050481EA030E52EA03354FEA01311E
:1007E80000F088804FEA03334FF0805545EA131331
:1007F80043EA12634FEA022245EA111545EA1065F9
:100808004FEA00260EF000419D4208BF964244F18F
:10081800FD0404F5407402D25B084FEA3202B61AAE
:1008280065EB03055B084FEA32024FF480104FF482
:10083800002CB6EB020E75EB030E22BFB61A7546F6
:1008480040EA0C005B084FEA3202B6EB020E75EB89
:10085800030E22BFB61A754640EA5C005B084FEAF1
:100868003202B6EB020E75EB030E22BFB61A7546BE
:1008780040EA9C005B084FEA3202B6EB020E75EBC9
:10088800030E22BFB61A754640EADC0055EA060E8A
:1008980018D04FEA051545EA16754FEA06164FEACD
:1008A800C30343EA52734FEAC2025FEA1C1CC0D179
:1008B80011F4801F0BD141EA00014FF000004FF006
:1008C800004CB6E711F4801F04BF01430020B4F1C7
:1008D800FD0C88BFBCF5E06F3FF6AFAEB5EB030C7F
:1008E80004BFB6EB020C5FEA500C50F1000041EB7C
:1008F800045170BD0EF0004E4EEA113114EB5C0449
:10090800C2BFD4EB0C0541EA045170BD41F480111B
:100918004FF0000E013C90E645EA060E8DE60CEA23
:10092800135594EA0C0F08BF95EA0C0F3FF43BAF40
:1009380094EA0C0F0AD150EA01347FF434AF95EAF7
:100948000C0F7FF425AF104619462CE795EA0C0FDB
:1009580006D152EA03353FF4FDAE1046194622E7A8
:1009680050EA410618BF52EA43067FF4C5AE50EA82
:1009780041047FF40DAF52EA43057FF4EBAE12E772
:100988004FF0FF3C06E000BF4FF0010C02E000BF53
:100998004FF0010C4DF804CD4FEA410C7FEA6C5C36
:1009A8004FEA430C18BF7FEA6C5C1BD001B050EAD9
:1009B800410C0CBF52EA430C91EA030F02BF90EAC4
:1009C800020F0020704710F1000F91EA030F58BF83
:1009D800994208BF90422CBFD8176FEAE37040F0E5
:1009E800010070474FEA410C7FEA6C5C02D150EA83
:1009F800013C07D14FEA430C7FEA6C5CD6D152EA3E
:100A0800033CD3D05DF8040B704700BF8446104602
:100A180062468C461946634600E000BF01B5FFF701
:100A2800B7FF002848BF10F1000F01BD4DF808EDD1
:100A3800FFF7F4FF0CBF012000205DF808FB00BFA2
:100A48004DF808EDFFF7EAFF34BF012000205DF8FC
:100A580008FB00BF4DF808EDFFF7E0FF94BF012049
:100A680000205DF808FB00BF4DF808EDFFF7CEFF4A
:100A780094BF012000205DF808FB00BF4DF808ED89
:100A8800FFF7C4FF34BF012000205DF808FB00BF5A
:100A98004FEA410C7FEA6C5C02D150EA013C0AD172
:100AA8004FEA430C7FEA6C5C02D152EA033C02D164
:100AB8004FF0000070474FF0010070474FEA4102C5
:100AC80012F5001215D211D56FF47873B3EB625298
:100AD80012D94FEAC12343F0004343EA505311F0BF
:100AE800004F23FA02F018BF404270474FF0000051
:100AF800704750EA013005D111F0004008BF6FF08F
:100B0800004070474FF00000704700BF4A0011D204
:100B180012F5001211D20DD56FF47873B3EB62524F
:100B28000ED44FEAC12343F0004343EA505323FA5B
:100B380002F070474FF00000704750EA013002D1D0
:100B48004FF0FF3070474FF00000704753B94AB973
:100B5800002908BF00281CBF4FF0FF314FF0FF30BD
:100B680000F0AEB9ADF1080C6DE904CE00F03EF826
:100B7800DDF804E0DDE9022304B0704738B5054626
:100B88000C460022002328462146FFF759FF28B9C2
:100B980028462146BDE8384000F00AB8284604F146
:100BA800004100F005F8404261EB410138BD00BF4B
:100BB800D0B500220B4B06460F46FFF7CFFCFFF7D8
:100BC800A5FF0446FFF750FC0022074BFFF7C6FCC1
:100BD80002460B4630463946FFF708FBFFF796FFFB
:100BE8002146D0BD0000F03D0000F0412DE9F0475E
:100BF800089E0D4604468846002B4DD18A429446ED
:100C080068D9B2FA82F252B101FA02F3C2F12001B4
:100C180020FA01F10CFA02FC41EA030894404FEA79
:100C28001C41B8FBF1F71FFA8CFE01FB178807FB84
:100C38000EF0230C43EA084398420AD91CEB03033D
:100C480007F1FF3580F01E81984240F21B81023F78
:100C580063441B1AB3FBF1F001FB103300FB0EFEDB
:100C6800A4B244EA0344A6450AD91CEB040400F1E3
:100C7800FF3380F00981A64540F2068164440238BA
:100C88000021A4EB0E0440EA07401EB10023D44023
:100C9800C6E90043BDE8F0878B4208D9002E00F072
:100CA800EE800021C6E900050846BDE8F087B3FAE2
:100CB80083F100294AD1AB4202D3824200F2FC8080
:100CC800841A65EB030301209846002EE2D0C6E99A
:100CD8000048DFE702B9FFDEB2FA82F2002A40F0EC
:100CE8009180A1EB0C0001214FEA1C471FFA8CFEF2
:100CF800B0FBF7F307FB1300250C45EA00450EFB94
:100D080003F0A84208D91CEB050503F1FF3802D20D
:100D1800A84200F2CE8043462D1AB5FBF7F007FB38
:100D280010550EFB00FEA4B244EA0544A64508D9B6
:100D38001CEB040400F1FF3502D2A64500F2B68090
:100D48002846A4EB0E0440EA03409EE7C1F12007C1
:100D58008B4022FA07FC4CEA030C25FA07FA4FEA03
:100D68001C49BAFBF9F820FA07F309FB18AA8D40C9
:100D78001FFA8CFE1D4300FA01F308FB0EF02C0C41
:100D880044EA0A44A04202FA01F20BD91CEB04041B
:100D980008F1FF3A80F08880A04240F28580A8F1EF
:100DA80002086444241AB4FBF9F009FB104400FB60
:100DB8000EFEADB245EA0444A64508D91CEB04046E
:100DC80000F1FF356CD2A6456AD90238644440EA7E
:100DD8000840A0FB0295A4EB0E04AC42C846AE4600
:100DE80056D353D0002E69D0B3EB080264EB0E043F
:100DF80022FA01F304FA07F71F43CC40C6E900744E
:100E0800002147E70CFA02FCC2F1200125FA01F3A0
:100E18004FEA1C4720FA01F195400D43B3FBF7F167
:100E280007FB11331FFA8CFE280C40EA034001FB34
:100E38000EF3834204FA02F408D91CEB000001F116
:100E4800FF382FD283422DD902396044C01AB0FB33
:100E5800F7F307FB1300ADB245EA004503FB0EF0BC
:100E6800A84208D91CEB050503F1FF3816D2A842A1
:100E780014D9023B6544281A43EA014138E7314650
:100E8800304607E72F46E4E61846F9E64B45A9D26F
:100E9800B9EB020865EB0C0E0138A3E74346EAE715
:100EA800284694E74146D1E7D0467BE764440238B8
:100EB80047E7023B65442FE7084606E73146E9E67F
:100EC800704700BF80B485B000AF786039607B6838
:100ED800002B02D03B68002B01D1012356E07A6831
:100EE8003B689A420DD1002350E07B681B78002BA9
:100EF80001D100234AE07B6801337B603B68013302
:100F08003B607B681B78FB73FB7B0133224A1344ED
:100F18001B7803F00303012B03D1FB7B03F12002B1
:100F280000E0FA7B3B681B78BB73BB7B01331A4933
:100F38000B441B7803F00303012B02D1BB7B203346
:100F480000E0BB7B9A42D0D07B681B787B737B7BAD
:100F58000133114A13441B7803F00303012B03D117
:100F68007B7B03F1200200E07A7B3B681B783B73B4
:100F78003B7B013308490B441B7803F00303012B27
:100F880002D13B7B203300E03B7BD31A1846143751
:100F9800BD4680BC704700BFA8AE000880B584B0CD
:100FA80000AF78607B681B6828209847F860FB686A
:100FB800002B04D028220021F86805F0D1F9FB683D
:100FC80018461037BD4680BD80B584B000AF786044
:100FD8000023FB6037E07B681B68FB607B68DB688D
:100FE80003F48073002B08D17B689B68002B04D026
:100FF8007B689B681846FFF7E7FF7B68DB6803F4AC
:101008008073002B09D17B681B69002B05D0124B1C
:101018005B687A681269104698477B68DB6803F456
:101028000073002B09D17B681B6A002B05D00A4B83
:101038005B687A68126A10469847074B5B6878685D
:101048009847FB687B607B68002BC4D100BF00BF5A
:101058001037BD4680BD00BF0000002080B400AF3F
:101068002E231846BD4680BC7047000000000000D3
:1010780080B598B000AF786039604FF000024FF04B
:101088000003C7E914230023BB64FFF7E7FF034607
:1010980087F84F300023FB653B68002B03D03B6883
:1010A8001B68002B01D10023C6E00023FB6563E029
:1010B8003B681A683B689968FB6D0B4413441B78BE
:1010C800452B3DDC2B2B66DB2B3B1A2B63D801A26F
:1010D80052F823F04D1100089F1100084D11000827
:1010E8006B1100089F1100084D1100084D110008F0
:1010F8004D1100084D1100084D1100084D11000850
:101108004D1100084D1100084D1100084D1100083F
:101118009F1100089F1100089F1100089F110008E7
:101128009F1100089F1100089F1100089F110008D7
:101138009F1100089F1100089F1100084D11000819
:10114800652B28D13B681A683B689968FB6D0B448E
:101158001344197807F10802FB6D13440A461A7004
:1011680007E007F10802FB6D134497F84F201A7047
:1011780000BFFB6D0133FB65FB6D3E2B0DD83B6853
:10118800002B0AD03B689A68FB6D1A443B685B6881
:101198009A428DD301E000BF00E000BF07F10802CA
:1011A800FB6D134400221A7007F1480207F1080387
:1011B8001146184606F0E4FDC7E91401BA6C07F1B8
:1011C80008039A4201D1002336E07968D7E914234D
:1011D800C1E906231AA3D3E90023D7E91401FFF7CD
:1011E80043FC0346002B04D07B686FF000425A6131
:1011F80015E04FF00002144BD7E91401FFF72AFC61
:101208000346002B04D07B684FF000425A6106E089
:10121800D7E91401FFF752FC02467B685A617B68E4
:101228000822DA603B689B68B96C07F108028A1AE1
:101238001A443B689A60012318466037BD4680BD52
:101248000000C0FFFFFFDF410000E0C180B485B0AF
:1012580000AF78600023FB600023BB600023BB6005
:101268004CE07A68BB6813441B782F2B0FD97A6837
:10127800BB6813441B78392B09D87A68BB681344B8
:101288001B781A46FB681344303BFB602DE07A68F4
:10129800BB6813441B78402B0FD97A68BB6813448A
:1012A8001B78462B09D87A68BB6813441B781A4602
:1012B800FB681344373BFB6017E07A68BB6813444C
:1012C8001B78602B0FD97A68BB6813441B78662B90
:1012D80009D87A68BB6813441B781A46FB6813441C
:1012E800573BFB6001E000230CE0BB68022B02D8EF
:1012F800FB681B01FB60BB680133BB60BB68032B49
:10130800AFD9FB6818461437BD4680BC704700004B
:1013180080B58AB000AFF860B9607A6000237B625C
:101328000023FB61FB68BB61002387F8233000239F
:1013380087F82230002387F82130002387F82030EF
:10134800BA68BB69D31A052B40F3B780BB6902336F
:101358001846FFF77BFFF861FB69B3F55C4F04D3D0
:10136800FB69B3F5604FC0F0AA80FB69B3F5584F2D
:1013780037D3FB69B3F55C4F33D2BB6906337B6166
:1013880000233B610C2387F82130BA687B69D31AA4
:10139800052B40F396807B691B785C2B40F093808B
:1013A8007B6901331B78752B40F08D807B69023394
:1013B8001846FFF74BFF38613B69B3F55C4FC0F047
:1013C80084803B69B3F5604F7FD2FB699A02434B37
:1013D80013403A69C2F30902134303F580337B6271
:1013E80004E0062387F82130FB697B627B6A7F2B48
:1013F80003D8012387F823301FE07B6AB3F5006F19
:1014080006D2022387F82330C02387F8203014E05F
:101418007B6AB3F5803F06D2032387F82330E023A5
:1014280087F8203009E07B6AB3F5881F4FD2042380
:1014380087F82330F02387F8203097F82330013BD2
:1014480087F8223015E07B6ADBB203F03F03DAB29B
:101458007B68196897F822300B4462F07F02D2B299
:101468001A707B6A9B097B6297F82230013B87F8E8
:10147800223097F82230002BE5D197F82330012B42
:1014880009D97B6AD9B27B681B6897F820200A4380
:10149800D2B21A7007E07B6ADAB27B681B6802F086
:1014A8007F02D2B21A707B681A6897F823301A4400
:1014B8007B681A6097F821300BE000BF08E000BF96
:1014C80006E000BF04E000BF02E000BF00E000BF8C
:1014D800002318462837BD4680BD00BF00FC0F001A
:1014E80080B58AB000AF786039603B681A683B689D
:1014F8009B68013313447B623B681A683B689B68AE
:10150800013313443B620023FB600023FB613B680B
:101518001A683B689B6813441B78222B40F00281B1
:1015280000233B610023BB6117E03B6A1B785C2BFF
:1015380010D13B6A5A1C3B681B68D31A1A463B6891
:101548005B689A4280F0F080BB690133BB613B6AFB
:1015580001333B623B6A01333B623B681B683A6A72
:10156800D31A1A463B685B689A4203D23B6A1B78D7
:10157800222BDAD13B681B683A6AD31A1A463B68B1
:101588005B689A4280F0D2803B6A1B78222B40F03D
:10159800CD803B681A683B689B6813443A6AD31A43
:1015A8001A46BB69D31A3B613B681B693A69013229
:1015B80010469847F861FB69002B00F0B980FB6979
:1015C800FB6093E07B6A1B785C2B08D07A6A531C1B
:1015D8007B62FB68591CF96012781A7086E0022356
:1015E800FB753A6A7B6AD31A002B40F3A3807B6AA7
:1015F80001331B78752B00F39F805C2B04DA222BB8
:101608005CD02F2B5AD097E05C3B192B00F29480CA
:1016180001A252F823F000BFC516000841170008C0
:101628004117000841170008411700084117000832
:1016380089160008411700084117000841170008DB
:1016480095160008411700084117000841170008BF
:101658004117000841170008411700084117000802
:10166800A116000841170008411700084117000893
:10167800AD16000841170008B9160008D31600086F
:10168800FB685A1CFA6008221A702BE0FB685A1C87
:10169800FA600C221A7025E0FB685A1CFA600A22CC
:1016A8001A701FE0FB685A1CFA600D221A7019E0C4
:1016B800FB685A1CFA6009221A7013E0FB685A1C6E
:1016C800FA607A6A52781A700CE007F10C031A462D
:1016D800396A786AFFF71CFE0346FB75FB7D002B11
:1016E8002CD000BFFB7D7A6A13447B627A6A3B6A1E
:1016F8009A42FFF467AFFB6800221A707B681022D9
:10170800DA607B68FA691A613B681B683A6AD31A1F
:101718001A463B689A603B689B685A1C3B689A600B
:1017280001231EE000BF0AE000BF08E000BF06E09A
:1017380000BF04E000BF02E000BF00E000BFFB699B
:10174800002B03D03B685B69F86998477B6A002BDC
:1017580006D03B681B687A6AD31A1A463B689A60B7
:10176800002318462837BD4680BD00BF80B483B02B
:1017780000AF78607B68002B03D07B681B68002B68
:1017880001D100232CE07B68002B05D07B689A6888
:101798007B685B689A4206D37B6821E07B689B681C
:1017A8005A1C7B689A607B68002B0DD07B689A680E
:1017B8007B685B689A4207D27B681A687B689B687B
:1017C80013441B78202BE9D97B689A687B685B688F
:1017D8009A4204D17B689B685A1E7B689A607B6832
:1017E80018460C37BD4680BC7047000080B582B0F3
:1017F80000AF78607B68002B07D07B681B68002BE4
:1018080003D07B689B68002B01D000231CE07B6819
:10181800002B18D07B689B681A1D7B685B689A420E
:1018280011D27B681A687B689B68134403220849B5
:10183800184605F070FC0346002B04D17B689B68B2
:10184800DA1C7B689A607B6818460837BD4680BDFD
:101858001CAB000880B586B000AFF860B9607A604C
:10186800FB68002B01D100230CE0F868FEF7B2FCFE
:10187800034601337B617B68BA687969F86800F0D0
:1018880005F8034618461837BD4680BD80B58EB0AA
:1018980000AFF860B9607A603B6007F11803002276
:1018A8001A605A609A60DA601A615A619A61002374
:1018B8007B63414B00221A603F4B00225A60FB6851
:1018C800002B42D0BB68002B3FD0FB68BB61BB68D4
:1018D800FB6100233B62394A07F1280307CA83E802
:1018E80007003648FFF75AFB78637B6B002B2ED036
:1018F80007F118031846FFF779FF03461846FFF764
:1019080035FF03461946786B00F068F80346002B4C
:101918001FD03B68002B0ED007F118031846FFF7BD
:1019280025FF3A6AFB699A4215D2BA693B6A1344A1
:101938001B78002B0FD17B68002B04D0BA693B6A57
:101948001A447B681A607B6B31E000BF04E000BF7B
:1019580002E000BF00E000BF7B6B002B02D0786B79
:10196800FFF732FBFB68002B20D0FB683B610023AC
:101978007B613A6AFB699A4202D23B6A7B6105E065
:10198800FB69002B02D0FB69013B7B617B68002B64
:1019980004D03A697B691A447B681A60064B1A4678
:1019A80007F1100393E8030082E8030000231846B8
:1019B8003837BD4680BD00BF24020020000000204B
:1019C80080B582B000AF7860002200217868FFF708
:1019D80041FF034618460837BD4680BD80B582B032
:1019E80000AF786039603B68002B03D03B681B6808
:1019F800002B01D10023D2E03B68002B1DD03B68AF
:101A08009B681A1D3B685B689A4216D83B681A683F
:101A18003B689B68134404226349184605F07BFB26
:101A28000346002B09D17B680422DA603B689B6877
:101A38001A1D3B689A600123B1E03B68002B1DD05A
:101A48003B689B685A1D3B685B689A4216D83B689E
:101A58001A683B689B68134405225449184605F0E8
:101A68005AFB0346002B09D17B680122DA603B68E8
:101A78009B685A1D3B689A60012390E03B68002BE5
:101A880020D03B689B681A1D3B685B689A4219D84E
:101A98003B681A683B689B6813440422444918460B
:101AA80005F039FB0346002B0CD17B680222DA6073
:101AB8007B6801225A613B689B681A1D3B689A60E3
:101AC80001236CE03B68002B13D03B689A683B68A5
:101AD8005B689A420DD23B681A683B689B6813445E
:101AE8001B78222B05D139687868FFF7F9FC034683
:101AF80055E03B68002B23D03B689A683B685B68DD
:101B08009A421DD23B681A683B689B6813441B784D
:101B18002D2B0FD03B681A683B689B6813441B78D1
:101B28002F2B0DD93B681A683B689B6813441B78B8
:101B3800392B05D839687868FFF79AFA03462EE0FA
:101B48003B68002B13D03B689A683B685B689A42F5
:101B58000DD23B681A683B689B6813441B785B2B63
:101B680005D13968786800F025F8034617E03B6826
:101B7800002B13D03B689A683B685B689A420DD289
:101B88003B681A683B689B6813441B787B2B05D11C
:101B98003968786800F0D2F8034600E00023184658
:101BA8000837BD4680BD00BFF4AA000820AB000876
:101BB80028AB000880B586B000AF78603960002394
:101BC8007B6100233B613B68DB68B3F57A7F01D317
:101BD8000023AFE03B68DB685A1C3B68DA603B686F
:101BE8001A683B689B6813441B785B2B40F0948011
:101BF8003B689B685A1C3B689A603868FFF7B6FDDB
:101C08003B68002B0DD03B689A683B685B689A423A
:101C180007D23B681A683B689B6813441B785D2BA6
:101C280061D03B68002B05D03B689A683B685B68CD
:101C38009A4205D33B689B685A1E3B689A6072E0DB
:101C48003B689B685A1E3B689A603B68103318468D
:101C5800FFF7A4F9F860FB68002B5FD07B69002BC5
:101C680004D1FB687B617B693B6107E03B69FA68EB
:101C78001A60FB683A695A60FB683B613B689B687D
:101C88005A1C3B689A603868FFF770FD39683869F4
:101C9800FFF7A4FE0346002B42D03868FFF766FD25
:101CA8003B68002B0DD03B689A683B685B689A429A
:101CB80007D23B681A683B689B6813441B782C2B37
:101CC800C3D03B68002B2DD03B689A683B685B68A3
:101CD8009A4227D23B681A683B689B6813441B7872
:101CE8005D2B1FD100E000BF3B68DB685A1E3B68D4
:101CF800DA607B69002B02D07B693A695A607B689D
:101D08002022DA607B687A699A603B689B685A1C73
:101D18003B689A6001230DE000BF04E000BF02E0C9
:101D280000BF00E000BF7B69002B02D07869FFF795
:101D38004BF9002318461837BD4680BD80B586B0DC
:101D480000AF7860396000237B6100233B613B680A
:101D5800DB68B3F57A7F01D30023EAE03B68DB68F0
:101D68005A1C3B68DA603B68002B00F0D0803B6867
:101D78009A683B685B689A4280F0C9803B681A6839
:101D88003B689B6813441B787B2B40F0C0803B6802
:101D98009B685A1C3B689A603868FFF7E7FC3B6809
:101DA800002B0ED03B689A683B685B689A4208D261
:101DB8003B681A683B689B6813441B787D2B00F0CE
:101DC8008D803B68002B05D03B689A683B685B6850
:101DD8009A4205D33B689B685A1E3B689A60A1E00B
:101DE8003B689B685A1E3B689A603B6810331846EC
:101DF800FFF7D4F8F860FB68002B00F08A807B6955
:101E0800002B04D1FB687B617B693B6107E03B6980
:101E1800FA681A60FB683A695A60FB683B613B687C
:101E28009B685A1C3B689A603868FFF79FFC3968C2
:101E38003869FFF755FB0346002B6CD03868FFF76D
:101E480095FC3B691A693B691A623B6900221A6171
:101E58003B68002B61D03B689A683B685B689A4294
:101E68005BD23B681A683B689B6813441B783A2B23
:101E780053D13B689B685A1C3B689A603868FFF7E7
:101E880075FC39683869FFF7A9FD0346002B46D071
:101E98003868FFF76BFC3B68002B0DD03B689A68ED
:101EA8003B685B689A4207D23B681A683B689B6844
:101EB80013441B782C2B98D03B68002B31D03B68FF
:101EC8009A683B685B689A422BD23B681A683B6801
:101ED8009B6813441B787D2B23D100E000BF3B682F
:101EE800DB685A1E3B68DA607B69002B02D07B698D
:101EF8003A695A607B684022DA607B687A699A603E
:101F08003B689B685A1C3B689A60012311E000BF3C
:101F180008E000BF06E000BF04E000BF02E000BF29
:101F280000E000BF7B69002B02D07869FFF74CF80E
:101F3800002318461837BD4680BD80B586B000AF6F
:101F4800F860B9607A6000237B61FB68002B02D0DF
:101F5800BB68002B01D1002333E0FB689B687B61E1
:101F68007B68002B17D002E07B691B687B617B696B
:101F7800002B1CD07B691B6A002B18D07B691B6A5D
:101F88001946B868FEF71CF90346002BECD10EE0A1
:101F98007B691B687B617B69002B08D07B691B6AA6
:101FA8001946B868FEF78EFF0346002BF0D17B690F
:101FB800002B03D07B691B6A002B01D1002300E0B2
:101FC8007B6918461837BD4680BD80B582B000AF22
:101FD80078603960002239687868FFF7AEFF0346F9
:101FE80018460837BD4680BD80B582B000AF78601E
:101FF800391D4FF6FF730122034803F09DFA7B68F1
:1020080018460837BD4680BDD002002080B500AF15
:1020180001F034FD03460C4A12689B1AB3F5FA7FA7
:10202800F6D30A4B1B78002B04D0094B1B681846C3
:1020380000F010F801F022FD03461A46024B1A6020
:1020480000BF00BF80BD00BFFC0700200C000020BF
:1020580024000020B0B5ADF51C7D02AF07F51A735A
:10206800A3F5197318600023C7F8643236E007F542
:10207800FE72D7F86432134400221A7007F5CC7246
:10208800D7F86432134400221A7007F51A73A3F5BF
:102098009A72D7F86432134400221A7007F51A733B
:1020A800A3F5CC72D7F86432134400221A7007F5EE
:1020B8001A73A3F5FE72D7F86432134400221A701B
:1020C80007F51A73A3F51872D7F86432134400227F
:1020D8001A70D7F864320133C7F86432D7F864321B
:1020E800632BC4DD07F5CC731846FEF773F8034677
:1020F8001A4607F5CC7313447B491A460B4603CBA3
:102108001060516007F1D00207F5CC7311461846EC
:1021180004F0E5FF07F5CC731846FEF75BF80346B5
:102128001A4607F5CC731344704A118892781980BF
:102138009A7007F5CC731846FEF74CF803461A4612
:1021480007F5CC7313446A4A10681860918892792D
:1021580099809A7107F16C0207F5CC7311461846FD
:1021680004F0BDFF07F5CC731846FEF733F80346B5
:102178001A4607F5CC7313445C4A11889278198083
:102188009A7007F5CC731846FEF724F803461A46EA
:1021980007F5CC731344574A1068186092889A80E0
:1021A80007F1080207F5CC731146184604F097FFAB
:1021B80007F5CC731846FEF70DF803461A4607F5DF
:1021C800CC7313444C4A1188927819809A7007F599
:1021D800CC731846FDF7FEFF03461A4607F5CC7385
:1021E8001344464A1188927819809A700023C7F8D8
:1021F800603207F5CC731846FDF7ECFF0346C7F8C5
:10220800603207F59A73D7F860223D49184604F002
:1022180003FF07F5FE731846FDF7DCFF03461A4671
:1022280007F5FE731344374A1D4614460FCC286041
:102238006960AA60EB6023882B8207F51A73A3F5FF
:10224800197307F5FE721968104604F048FF07F580
:10225800FE731846FDF7BEFF03461A4607F5FE73E0
:102268001344224A1188927819809A7007F59A7255
:1022780007F5FE731146184604F031FF07F5FE73A3
:102288001846FDF7A7FF03461A4607F5FE731344E1
:102298001D4A106818609188927999809A7107F59B
:1022A800FE7003230093002341F28832174900F09F
:1022B800F9F900F0C7FD164B1B78002B0BD107F579
:1022C800CC7005230093002341F28832114900F0B5
:1022D800E9F900F0B7FD104B01221A6000BF07F5BD
:1022E8001A77BD46B0BD00BF88AB000890AB0008A8
:1022F80094AB00089CAB0008A4AB0008A8AB00088E
:10230800ACAB0008B0AB0008C4AB0008CCAB00080D
:10231800F4070020D4AB0008F8070020B0B5ADF5ED
:10232800067D02AF07F50474A4F50174206007F573
:102338000470A0F50270016007F50471A1F503713E
:102348000A6007F50472A2F5047213600023C7F847
:10235800083204F0D7FD0246C14B83FB0213591122
:10236800D317CB1A642101FB03F3D31AC7F8083239
:102378000023C7F80C322DE007F5D272D7F80C32DB
:10238800134400221A7007F5A072D7F80C321344D0
:1023980000221A7007F50473A3F59A72D7F80C3265
:1023A800134400221A7007F50473A3F5CC72D7F80A
:1023B8000C32134400221A7007F50473A3F5FE7259
:1023C800D7F80C32134400221A70D7F80C320133B4
:1023D800C7F80C32D7F80C32632BCDDD07F5A073A4
:1023E800D7F808229F49184604F0FEFC07F5D27377
:1023F8001846FDF7EFFE03461A4607F5D273134455
:10240800994A1068186007F5A07207F5D27311464B
:10241800184604F064FE07F1DC031846FDF7DAFEFF
:1024280003461A4607F1DC031344904A1D46144636
:102438000FCC28606960AA60EB6020682861237966
:102448002B7507F5D27207F1DC031146184604F024
:1024580046FE07F1DC031846FDF7BCFE03461A46A4
:1024680007F1DC031344824A1068186007F5047307
:10247800A3F5037307F1DC021968104604F02FFE78
:1024880007F1DC031846FDF7A5FE03461A4607F1D7
:10249800DC031344764A1068186007F50473A3F543
:1024A800047307F1DC021968104604F018FE07F1FE
:1024B800DC031846FDF78EFE03461A4607F1DC03D7
:1024C80013446C4A106818609188927999809A71BF
:1024D80007F1DC031846FDF77DFE03461A4607F1AF
:1024E800DC031344644A1188927819809A7007F1C2
:1024F800DC031846FDF76EFE03461A4607F1DC03B7
:1025080013445E4A1188927819809A7007F178030B
:102518001846FDF75FFE03461A4607F17803134491
:10252800574A1C4615460FCD20606160A260E360E3
:1025380007F50473A3F5017307F1780219681046CB
:1025480004F0CDFD07F178031846FDF743FE034676
:102558001A4607F1780313444A4A11889278198079
:102568009A7007F50473A3F5027307F178021968E6
:10257800104604F0B4FD07F178031846FDF72AFE6B
:1025880003461A4607F1780313443F4A1068186057
:1025980012791A7107F114031846FDF71BFE03465A
:1025A8001A4607F114031344384A1C46134607CB4E
:1025B80020606160A2601A889B78A281A37307F1EA
:1025C8001403D7F82012184604F089FD07F1140304
:1025D8001846FDF7FFFD03461A4607F11403134496
:1025E8002B4A1068186092889A8007F1DC0005234E
:1025F8000093002341F28832264900F00DF94FF488
:102608007A7001F045FA00F01DFC07F17800052307
:102618000093002341F288321F4900F0FDF84FF47F
:102628007A7001F035FA00F00DFC07F1140005236B
:102638000093002341F28832164900F0EDF84FF478
:102648007A7001F025FA00F0FDFB144B01221A60A4
:10265800134B01221A7000BF07F50477BD46B0BDC1
:102668001F85EB51ACAB0008E0AB0008E4AB0008F9
:10267800FCAB000800AC000808AC0008A8AB0008D8
:102688000CAC000890AB00081CAC000824AC000897
:1026980034AC00083CAC000840AC0008F807002047
:1026A800F40700202DE9F0438BB000AFF860B96063
:1026B8007A603B606B461E4600F0C4FB01F0DEF911
:1026C80003461A464D4B1A604FF49673FB6100237C
:1026D8003B623B684A4A1360F9690B46013BBB61A0
:1026E8000023884699464FF000024FF000034FEA56
:1026F800C90343EA58734FEAC80200230C461D4633
:102708004FF000024FF00003EB0043EA5473E2007D
:10271800CB1DDB08DB00ADEB030D6B4600337B61A3
:1027280000237B6207E07A697B6A134400221A70EF
:102738007B6A01337B627B6AFA699A42F3D8FB6849
:10274800304A786904F034FC7869FDF743FD0346A4
:102758009AB24FF47A7379692B4802F0EDFE01F0D2
:102768008DF903461A46254B1A6001F087F903468E
:10277800224A12689B1A7A689A4213D83B6A013334
:102788003B627869FDF726FD03469AB24FF47A73E7
:1027980079691D4802F0D0FE01F070F903461A4627
:1027A800164B1A60B968194804F0C9FC0346002B97
:1027B8000ED000F047FB164B00221A70154B012271
:1027C8001A7001F05BF903461A460C4B1A600EE0CA
:1027D8003A6ABB6C9A42C8D30D4B01221A7000F0BA
:1027E80031FB01F04BF903461A46044B1A60B54613
:1027F80000BF2C37BD46BDE8F08300BFFC070020B2
:10280800F807002050AC0008880200203C03002094
:10281800F40700200C0000202DE9F0438BB000AF36
:10282800F860B9607A603B606B461E4600F00AFBB0
:1028380001F024F903461A464E4B1A604FF496737A
:10284800FB6100233B623B684B4A1360F9690B4606
:10285800013BBB610023884699464FF000024FF0C8
:1028680000034FEAC90343EA58734FEAC80200233A
:102878000C461D464FF000024FF00003EB0043EA00
:102888005473E200CB1DDB08DB00ADEB030D6B4698
:1028980000337B6100237B6207E07A697B6A13441B
:1028A80000221A707B6A01337B627B6AFA699A425A
:1028B800F3D8FB68314A786904F07AFB7869FDF748
:1028C80089FC03469AB24FF47A7379692C4802F06E
:1028D80033FE01F0D3F803461A46264B1A6001F07E
:1028E800CDF80346234A12689B1A7A689A4213D88D
:1028F8003B6A01333B627869FDF76CFC03469AB288
:102908004FF47A7379691E4802F016FE01F0B6F8A2
:1029180003461A46174B1A60B9681A4804F00FFCA8
:102928000346002B0ED000F08DFA174B01221A70C7
:10293800164B01221A7001F0A1F803461A460D4BF6
:102948001A6011E03A6ABB6C9A42C8D30E4B002257
:102958001A700E4B00221A7000F074FA01F08EF80B
:1029680003461A46034B1A60B54600BF2C37BD46CE
:10297800BDE8F083FC070020F807002050AC0008F1
:10298800880200203C030020F40700200C000020EF
:1029980080B584B000AF7860514B1B68002B0CD118
:1029A8007B681B684F4A934217D100F0B3F80122A5
:1029B8004D494E4802F043FE0FE0494B1B68012B7E
:1029C8000BD17B681B68474A934206D100F0BAF8DE
:1029D80001224549454802F032FE7B681B68444A9B
:1029E800934278D1434B1B78002B0CD10023FB7307
:1029F80006E0FB7B404A0021D154FB7B0133FB738B
:102A0800FB7B312BF5D93D4B1B780D2B0AD0394B6D
:102A18001B785A1CD1B2374A11701A46374B1978AD
:102A2800354B9954354B1B78632B38D0632B4CDCD2
:102A3800612B02D0622B1CD047E02F4803F040FCEA
:102A480002460B4610461946FEF760F80346DAB20E
:102A58002B4B1A7064220021274803F081FC254B78
:102A680000221A70264B1B781946264804F0BCF938
:102A78002CE0214803F024FC02460B461046194678
:102A8800FEF744F80346DAB21F4B1A70642200219D
:102A9800194803F065FC174B00221A7016E0164817
:102AA80003F00EFC02460B4610461946FEF72EF8B8
:102AB8000346DAB2154B1A70642200210E4803F05F
:102AC8004FFC0C4B00221A7000E000BF01220B499A
:102AD8000F4802F0B4FD00BF1037BD4680BD00BFEF
:102AE800F807002000100140380300208802002069
:102AF80000440040240700208C07002028070020FD
:102B08003403002054AC00083503002036030020AD
:102B1800D002002080B400AF074B1B785A1CD1B2FA
:102B2800054A11701A46054B1978054B995400BF90
:102B3800BD4680BC704700BF370300203803002023
:102B48003C03002080B582B000AF364B1B780A2BBF
:102B580009D0354B1B685A1C33490A60314A117831
:102B6800324AD15459E0304B1B685A1C2E490A602E
:102B78002C4A11782D4AD1542B4B00221A602C492B
:102B88002A4804F0DCFA0346002B09D0294B01221D
:102B98001A7000F073FF03461A46274B1A6034E098
:102BA8002649224804F0CBFA0346002B09D0214BD2
:102BB80000221A7000F062FF03461A461E4B1A6084
:102BC80023E01F49194804F0BAFA0346002B1CD029
:102BD8001C49164805F0E0F878601A49002005F00D
:102BE800DBF878601749002005F0D6F878601649B8
:102BF800002005F0D1F87860786800F027F800F038
:102C08003DFF03461A460C4B1A6000F037FF034697
:102C18001A46094B1A6000F033F900BF0837BD4661
:102C280080BD00BF38030020F007002030050020D9
:102C380058AC00080C000020FC07002068AC000815
:102C48007CAC00088CAC000890AC000880B582B061
:102C580000AF78607868FEF7B3FE0346634A1360F6
:102C6800624B1B68002B00F0BC80614B1B68012B7A
:102C780063D15E4B1B685F491846FFF7A6F9034608
:102C88005D4A13605C4B1B68002B06D05A4B1B68CF
:102C98001B691946594804F0A7F8544B1B68584952
:102CA8001846FFF792F90346564A1360554B1B68BE
:102CB800002B06D0534B1B681B691946524804F079
:102CC80093F84A4B1B6851491846FFF77EF90346AB
:102CD8004F4A13604E4B1B68002B06D04C4B1B68A9
:102CE8001B6919464B4804F07FF8404B1B684A495A
:102CF8001846FFF76AF90346484A1360474B1B68B2
:102D0800002B06D0454B1B681B691946444804F044
:102D18006BF8364B1B6843491846FFF756F90346CC
:102D2800414A1360404B1B68002B06D03E4B1B6882
:102D38001B6919463D4804F057F82C4B1B683C4961
:102D48001846FFF742F903463A4A1360394B1B68A5
:102D5800DB68102B3FD1374B1B681B6931211846A4
:102D680004F0CCF90346002B15D00022802132480C
:102D780001F036FD2F4B1B681B69184603F0A3FAB8
:102D880003461A461A4B1A60194B1B68012B02D1CD
:102D98002A4804F0AFF8274B1B681B6930211846F6
:102DA80004F0ACF90346002B15D0012280212248FB
:102DB80001F016FD1F4B1B681B69184603F083FAC8
:102DC80003461A460A4B1A60094B1B68002B02D1AE
:102DD8001B4804F08FF8054B1B681846FEF7F4F8FB
:102DE80000E000BF0837BD4680BD00BF18030020C3
:102DF8000008002094AC0008200300209CAC0008C8
:102E0800A4AC000828030020ACAC0008B4AC00084F
:102E180024030020BCAC0008C4AC00082C0300202C
:102E2800CCAC0008D4AC000830030020DCAC0008AF
:102E3800E4AC00081C03002000100240E8AC0008C5
:102E4800ECAC000880B483B000AF00237B6007E0DF
:102E5800094A7B68134400221A707B6801337B603F
:102E68007B68B3F5FA7FF3DB044B00221A7000BFCE
:102E78000C37BD4680BC70473C0300203703002058
:102E880080B483B000AF00237B6007E0094A7B6809
:102E9800134400221A707B6801337B607B68B3F5AA
:102EA800FA7FF3DB044B00221A6000BF0C37BD46E3
:102EB80080BC704730050020F007002080B592B034
:102EC80000AFF860B9607A603B6000F0D7FD034658
:102ED8001A462D4B1A603B682C4A136000237B640A
:102EE80008E007F110027B6C134400221A707B6C17
:102EF80001337B647B6C312BF3DD07F11000FB6839
:102F0800234A322104F054F807F110031846FDF75C
:102F180061F903469AB207F110014FF47A731D481C
:102F280002F00AFB00F0AAFD03461A46164B1A6087
:102F380000F0A4FD0346144A12689B1A7A689A4264
:102F480013D807F110031846FDF744F903469AB25F
:102F580007F110014FF47A730E4802F0EDFA00F011
:102F68008DFD03461A46084B1A60B9680A4804F0F2
:102F7800E6F80346002BDBD0FFF764FF00BF00BF75
:102F88004837BD4680BD00BFFC070020F807002079
:102F9800F0AC0008880200203C03002080B500AF98
:102FA800002342F2107222492248FFF787FF40F6B9
:102FB800B83000F06DFD00234FF496721C491E488E
:102FC800FFF77CFF40F6B83000F062FD00234FF4B5
:102FD800FA6217491948FFF771FF40F6B83000F058
:102FE80057FD00234FF4FA6211491548FFF766FFB1
:102FF80040F6B83000F04CFD002342F2107211493F
:103008001148FFF75BFF40F6B83000F041FD0023A0
:103018004FF4FA6206490D48FFF750FF40F6B83002
:1030280000F036FD0A4B00221A7000BF80BD00BFB9
:103038003CAC0008F8AC000804AD00080CAD000872
:1030480014AD000824AD000834AD00085CAD0008DC
:10305800F4070020B0B582B002AF00F0ABFC00F07E
:1030680059F800F051F900F0D1F800F0F9F800F043
:1030780021F900F097F800211A4800F099FE4FF462
:10308800966000F005FD01221749184802F0D7FAAA
:1030980001221749174802F0D2FA40F6B83000F07A
:1030A800F7FCFFF77BFF40F6B83000F0F1FC124B5D
:1030B8001868124B1968124B1C68124B1D68124B8A
:1030C8001B68124A1268019200932B462246FFF7AA
:1030D80025F900F0D3FC03461A460D4B1A60FEF79B
:1030E80095FFFCE72C02002038030020880200200E
:1030F80028070020D0020020100000201400002023
:10310800180000201C0000202000002024000020BF
:10311800FC07002080B592B000AF07F118033022F9
:103128000021184603F01CF93B1D00221A605A6062
:103138009A60DA601A610223BB6101237B62102363
:10314800BB6202233B6300237B630D23BB63C32362
:10315800FB6302233B6404237B6407F118031846CE
:1031680001F070FB0346002B01D000F099F90F2302
:103178007B600223BB600023FB604FF4A0533B61DC
:103188004FF480537B613B1D0321184601F05CFE20
:103198000346002B01D000F083F900BF4837BD4635
:1031A80080BD000080B582B000AF3B4600221A60A7
:1031B8005A60144B144A1A60124800F0C9FD0346BD
:1031C800002B01D000F06CF900233B6000237B60EA
:1031D8003B46002219460B4800F0ACFE0346002B84
:1031E80001D000F05DF93B4610221946054800F071
:1031F800A1FE0346002B01D000F052F900BF0837AA
:10320800BD4680BD2C0200200074004080B500AF90
:10321800114B124A1A60104B4FF4E1325A600E4BB0
:1032280000229A600C4B0022DA600B4B00221A61D4
:10323800094B0C225A61084B00229A61064B002266
:10324800DA61054802F0A4F80346002B01D000F02B
:1032580027F900BF80BD00BF40020020004C00409D
:1032680080B500AF114B124A1A60104B4FF4E1328F
:103278005A600E4B00229A600C4B0022DA600B4B0E
:1032880000221A61094B0C225A61084B00229A61EC
:10329800064B0022DA61054802F07AF80346002B53
:1032A80001D000F0FDF800BF80BD00BF88020020FB
:1032B8000010014080B500AF114B124A1A60104B44
:1032C8004FF4E1325A600E4B00229A600C4B0022F8
:1032D800DA600B4B00221A61094B0C225A61084B29
:1032E80000229A61064B0022DA61054802F050F884
:1032F8000346002B01D000F0D3F800BF80BD00BF0B
:10330800D00200200044004080B58CB000AF07F127
:103318001C0300221A605A609A60DA601A6100235E
:10332800BB61594B1B6B584A43F010031363564B50
:103338001B6B03F01003BB61BB6900237B61524B1D
:103348001B6B514A43F0040313634F4B1B6B03F091
:1033580004037B617B6900233B614B4B1B6B4A4A2F
:1033680043F080031363484B1B6B03F080033B61FE
:103378003B690023FB60444B1B6B434A43F001034A
:103388001363414B1B6B03F00103FB60FB680023D5
:10339800BB603D4B1B6B3C4A43F0020313633A4B43
:1033A8001B6B03F00203BB60BB6800237B60364BDA
:1033B8001B6B354A43F008031363334B1B6B03F055
:1033C80008037B607B6801224FF4F0612F4801F00D
:1033D80007FA00224FF400612C4801F001FA4FF27D
:1033E8007F03FB6103233B6200237B6207F11C031D
:1033F8001946264800F0D2FE43F6FF73FB6103230B
:103408003B6200237B6207F11C031946204800F049
:10341800C5FE49F6C013FB6103233B6200237B62B0
:1034280007F11C0319461B4800F0B8FE4FF6FF735E
:10343800FB6103233B6200237B6207F11C031946EF
:10344800154800F0ABFE4FF47863FB6101233B6243
:1034580000237B620023BB6207F11C0319460B485B
:1034680000F09CFE4FF6FF73FB6103233B620023D1
:103478007B6207F11C031946084800F08FFE00BF65
:103488003037BD4680BD00BF003802400010024002
:10349800000802400000024000040240000C024004
:1034A80080B400AF72B600BFFEE780B483B000AF4F
:1034B8007860396000BF0C37BD4680BC704700009B
:1034C80080B483B000AF00237B600F4B5B6C0E4A67
:1034D80043F4804353640C4B5B6C03F480437B6080
:1034E8007B6800233B60084B1B6C074A43F0805302
:1034F8001364054B1B6C03F080533B603B6800BFB3
:103508000C37BD4680BC70470038024080B58AB091
:1035180000AF786007F1140300221A605A609A60BD
:10352800DA601A617B681B681B4A93422FD100231B
:103538003B611A4B1B6C194A43F000531364174B39
:103548001B6C03F000533B613B690023FB60134B8A
:103558001B6B124A43F001031363104B1B6B03F000
:103568000103FB60FB6830237B610323BB610023FD
:10357800FB6107F114031946094800F00FFE002209
:103588000021362000F094FB362000F0BDFB00BF80
:103598002837BD4680BD00BF007400400038024097
:1035A8000000024080B58EB000AF786007F12403B8
:1035B80000221A605A609A60DA601A617B681B6898
:1035C800574A934234D100233B62564B1B6C554AF1
:1035D80043F400231364534B1B6C03F400233B6236
:1035E8003B6A0023FB614F4B1B6B4E4A43F00103C0
:1035F80013634C4B1B6B03F00103FB61FB69032353
:103608007B620223BB620123FB6203233B63082323
:103618007B6307F124031946434800F0BFFD0022ED
:103628000021342000F044FB342000F06DFB73E0EF
:103638007B681B683D4A934235D10023BB61394BF7
:103648005B6C384A43F010035364364B5B6C03F0F1
:103658001003BB61BB6900237B61324B1B6B314A92
:1036680043F0010313632F4B1B6B03F001037B61D2
:103678007B694FF4C0637B620223BB620023FB6259
:1036880003233B6307237B6307F12403194626487A
:1036980000F084FD00220021252000F009FB2520F0
:1036A80000F032FB38E07B681B68214A934233D133
:1036B80000233B611B4B1B6C1A4A43F40033136411
:1036C800184B1B6C03F400333B613B690023FB6020
:1036D800144B1B6B134A43F001031363114B1B6B11
:1036E80003F00103FB60FB680C237B620223BB62CF
:1036F8000023FB6203233B6307237B6307F1240357
:103708001946094800F04AFD00220021262000F051
:10371800CFFA262000F0F8FA00BF3837BD4680BD42
:10372800004C0040003802400000024000100140F8
:103738000044004080B400AFFEE780B400AFFEE76D
:1037480080B400AFFEE780B400AFFEE780B400AFFE
:10375800FEE780B400AF00BFBD4680BC704780B4B0
:1037680000AF00BFBD4680BC704780B400AF00BF4B
:10377800BD4680BC704780B500AF00F06DF900BF52
:1037880080BD000080B500AF024801F07DFF00BF9A
:1037980080BD00BF8802002080B500AF024801F05C
:1037A80073FF00BF80BD00BFD002002080B500AF0E
:1037B800024801F069FF00BF80BD00BF4002002041
:1037C80080B500AF024800F055FB00BF80BD00BFC8
:1037D8002C02002080B400AF01231846BD4680BCEF
:1037E800704780B582B000AF7860396002F070FD34
:1037F800034616221A604FF0FF3318460837BD46B5
:1038080080BD80B582B000AF78604FF0FF31786836
:10381800FFF7E7FFFEE780B586B000AFF860B96054
:103828007A6000237B610AE0AFF300800146BB6841
:103838005A1CBA60CAB21A707B6901337B617A6913
:103848007B689A42F0DB7B6818461837BD4680BD16
:1038580080B586B000AFF860B9607A6000237B61FC
:1038680009E0BB685A1CBA601B781846FEF7BCFB17
:103878007B6901337B617A697B689A42F1DB7B68FB
:1038880018461837BD4680BD80B483B000AF786055
:103898004FF0FF3318460C37BD4680BC704780B4E4
:1038A80083B000AF786039603B684FF400525A60CB
:1038B800002318460C37BD4680BC704780B483B0DF
:1038C80000AF7860012318460C37BD4680BC7047AE
:1038D80080B485B000AFF860B9607A6000231846FC
:1038E8001437BD4680BC704780B586B000AF78609D
:1038F800144A154BD31A7B617B693B61134B1B68D8
:10390800002B02D1114B124A1A60104B1A687B68BF
:1039180013443A699A4207D202F0DAFC03460C22B1
:103928001A604FF0FF3309E0084B1B68FB60074B38
:103938001A687B681344054A1360FB6818461837F1
:10394800BD4680BD0040012000040000040800209E
:103958002008002080B400AF00BFBD4680BC70477F
:10396800DFF834D0FFF7F6FF0C480D490D4A002365
:1039780002E0D458C4500433C4188C42F9D30A4A1C
:103988000A4C002301E013600432A242FBD302F088
:10399800A5FCFFF75FFB70470040012000000020F6
:1039A8000802002018B40008080200201C080020A3
:1039B800FEE7000080B500AF0E4B1B680D4A43F4CC
:1039C800007313600B4B1B680A4A43F4806313604F
:1039D800084B1B68074A43F480731360032000F008
:1039E80047F9002000F008F8FFF76AFD00231846A1
:1039F80080BD00BF003C024080B582B000AF786057
:103A0800124B1A68124B1B7819464FF47A73B3FBA2
:103A1800F1F3B2FBF3F3184600F08EF90346002BDE
:103A280001D001230EE07B680F2B0AD800227968A9
:103A38004FF0FF3000F03CF9064A7B681360002322
:103A480000E0012318460837BD4680BD2800002045
:103A5800300000202C00002080B400AF054B1B78FC
:103A68001A46054B1B681344034A136000BFBD4642
:103A780080BC7047300000200808002080B400AFE8
:103A8800024B1B681846BD4680BC704708080020DA
:103A980080B584B000AF7860FFF7F0FFB8607B684E
:103AA800FB60FB68B3F1FF3F05D00A4B1B781A4651
:103AB800FB681344FB6000BFFFF7E0FF0246BB68EA
:103AC800D31AFA689A42F7D800BF00BF1037BD462C
:103AD80080BD00BF3000002080B485B000AF7860A2
:103AE8007B6803F00703FB600C4BDB68BB60BA68BC
:103AF8004FF6FF031340BB60FB681A02BB68134311
:103B080043F0BF6343F40033BB60044ABB68D3602F
:103B180000BF1437BD4680BC704700BF00ED00E011
:103B280080B400AF044BDB681B0A03F00703184698
:103B3800BD4680BC704700BF00ED00E080B483B094
:103B480000AF0346FB7197F90730002B0BDBFB79BD
:103B580003F01F02064997F907305B09012000FAB4
:103B680002F241F8232000BF0C37BD4680BC7047E5
:103B780000E100E080B483B000AF03463960FB7118
:103B880097F90730002B0ADB3B68DAB20C4997F942
:103B980007301201D2B20B4483F800230AE03B68D5
:103BA800DAB20849FB7903F00F03043B1201D2B2E1
:103BB8000B441A7600BF0C37BD4680BC704700BF67
:103BC80000E100E000ED00E080B489B000AFF860EB
:103BD800B9607A60FB6803F00703FB61FB69C3F116
:103BE8000703042B28BF0423BB61FB690433062B9E
:103BF80002D9FB69033B00E000237B614FF0FF32F1
:103C0800BB6902FA03F3DA43BB681A407B699A403E
:103C18004FF0FF317B6901FA03F3D9437B680B400E
:103C2800134318462437BD4680BC704780B582B020
:103C380000AF78607B68013BB3F1807F01D301233B
:103C48000FE00A4A7B68013B53600F214FF0FF30B9
:103C5800FFF790FF054B00229A60044B07221A6079
:103C6800002318460837BD4680BD00BF10E000E0BD
:103C780080B582B000AF78607B68072B0FD07B6877
:103C8800062B0CD07B68052B09D07B68042B06D04B
:103C98007B68032B03D091210448FFF706FC786862
:103CA800FFF71AFF00BF0837BD4680BD6CAD00089E
:103CB80080B586B000AF0346B9607A60FB73002315
:103CC8007B617B680F2B03D9A9210E48FFF7EDFB19
:103CD800BB680F2B03D9AA210A48FFF7E6FBFFF7B9
:103CE8001FFF78617A68B9687869FFF76DFF024647
:103CF80097F90F3011461846FFF73CFF00BF1837F9
:103D0800BD4680BD6CAD000880B582B000AF0346EB
:103D1800FB7197F90730002B03DABD210548FFF73F
:103D2800C4FB97F907301846FFF708FF00BF0837AC
:103D3800BD4680BD6CAD000880B582B000AF78602C
:103D48007868FFF773FF034618460837BD4680BDFD
:103D580080B582B000AF78607B68002B01D1012369
:103D68001EE07B681B68104A934204D04FF492719E
:103D78000E48FFF79AFB7B681B79DBB2002B05D155
:103D88007B6800225A717868FFF7C0FB7B680222C3
:103D98001A717B6800221A617B6801221A7100235C
:103DA80018460837BD4680BD00740040A8AD00081D
:103DB80080B582B000AF786039607B68002B01D194
:103DC800012351E03B68002B07D03B68102B04D03F
:103DD80040F2C9112648FFF768FB7B685B79012B25
:103DE80001D1022340E07B6801225A717B680222DC
:103DF8001A717B681B6819683B6803F0100301227D
:103E08009A407B681B680A431A603B68002B0FD1F5
:103E18007B681B681B6803F03C033C2B1DD17B6847
:103E28001B685A687B681B6842F001025A6014E0FC
:103E38007B681B681B6803F470123B6803F010036F
:103E48003C2101FA03F39A4207D17B681B685A6840
:103E58007B681B6842F002025A607B6801221A7173
:103E68007B6800225A71002318460837BD4680BD7A
:103E7800A8AD000880B584B000AF78607B681B6887
:103E88001B68FB607B681B685B6BBB60FB6803F4AB
:103E98000053002B1DD0BB6803F40053002B18D02F
:103EA8007B6804221A717B681B6943F001027B68F6
:103EB8001A617B681B684FF400525A637B681B6861
:103EC8001A687B681B6822F480521A60786800F0D0
:103ED80027F8FB6803F00053002B1DD0BB6803F0E4
:103EE8000053002B18D07B6804221A717B681B6969
:103EF80043F002027B681A617B681B684FF000522E
:103F08005A637B681B681A687B681B6822F08052BA
:103F18001A60786800F0A8F800BF1037BD4680BD69
:103F280080B483B000AF786000BF0C37BD4680BC5A
:103F38007047000080B588B000AFF860B9607A605B
:103F48000023FB77FB68002B02D0BB68002B01D154
:103F5800012383E0BB681B68002B24D0BB681B6867
:103F6800242B20D0BB681B680C2B1CD0BB681B689B
:103F7800142B18D0BB681B681C2B14D0BB681B689B
:103F8800042B10D0BB681B682C2B0CD0BB681B689B
:103F9800342B08D0BB681B683C2B04D04FF47771D6
:103FA8003048FFF782FABB685B68002B08D0BB6813
:103FB8005B68022B04D040F2DD312A48FFF775FA1E
:103FC8007B68002B07D07B68102B04D040F2DE31D1
:103FD8002448FFF76AFAFB685B79012B01D10223B9
:103FE8003CE0FB6801225A71FB6802221A71FB68E7
:103FF8001B681B68BB617B6803F0100340F6FE7208
:1040080002FA03F3DB43BA691340BB61BB681A6861
:10401800BB685B6813437B617B6803F010037A69B4
:1040280002FA03F3BA691343BB61FB681B68BA69F8
:104038001A60FB681B6819687B6803F01003C022CC
:1040480002FA03F3DA43FB681B680A401A60FB684C
:1040580001221A71FB6800225A71FB7F184620372B
:10406800BD4680BDA8AD000880B483B000AF7860BD
:1040780000BF0C37BD4680BC704780B584B000AF28
:1040880078607B689B6DFB60FFF7F8FCB8607B6825
:1040980093F83530DBB2022B08D07B6880225A6552
:1040A8007B68002283F83420012352E07B681B6878
:1040B8001A687B681B6822F016021A607B681B6806
:1040C8005A697B681B6822F080025A617B681B6C06
:1040D800002B03D17B689B6C002B07D07B681B6887
:1040E8001A687B681B6822F008021A607B681B68E4
:1040F8001A687B681B6822F001021A6013E0FFF758
:10410800BDFC0246BB68D31A052B0CD97B6820225C
:104118005A657B68032283F835207B68002283F880
:104128003420032315E07B681B681B6803F0010338
:10413800002BE4D17B68DB6D3F229A40FB689A60D4
:104148007B68012283F835207B68002283F83420BD
:10415800002318461037BD4680BD80B483B000AF39
:1041680078607B6893F83530DBB2022B04D07B682B
:1041780080225A6501230CE07B68052283F83520EC
:104188007B681B681A687B681B6822F001021A604A
:10419800002318460C37BD4680BC704780B586B0F2
:1041A80000AF7860396000237B617B683E4A9342A8
:1041B80023D07B683D4A93421FD07B683C4A934298
:1041C8001BD07B683B4A934217D07B683A4A93429C
:1041D80013D07B68394A93420FD07B68384A9342A0
:1041E8000BD07B68374A934207D07B68364A9342A4
:1041F80003D0B0213548FFF758F93B681B689BB2DC
:10420800002B05D03B681B681B0C1B04002B03D03C
:10421800B1212E48FFF749F93B685B68002B00F095
:10422800B8823B685B68012B00F0B3823B685B682F
:10423800112B00F0AE823B685B68022B00F0A9826C
:104248003B685B68122B00F0A4823B685B68B3F59F
:10425800881F00F09E823B685B68B3F5041F00F07E
:1042680098823B685B68B3F5441F00F092823B6814
:104278005B68B3F5901F00F08C823B685B68B3F510
:10428800081F00F086823B685B68B3F5481F00F0A2
:1042980080823B685B68032B00F07B82B2210B486D
:1042A800FFF703F975E200BF000002400004024076
:1042B80000080240000C02400010024000140240B6
:1042C80000180240001C024000200240E0AD000837
:1042D8003B681A6801217B6901FA03F31340FB600C
:1042E800FB68002B00F052823B685B6803F0030315
:1042F800012B05D03B685B6803F00303022B44D114
:104308003B68DB68002B0FD03B68DB68012B0BD0C8
:104318003B68DB68022B07D03B68DB68032B03D0C4
:10432800C0214948FFF7C1F87B689B683B617B69FE
:104338005B00032202FA03F3DB433A6913403B6153
:104348003B68DA687B695B0002FA03F33A69134356
:104358003B617B683A699A607B685B683B610122D4
:104368007B6902FA03F3DB433A6913403B613B681C
:104378005B681B0903F001027B6902FA03F33A69DF
:1043880013433B617B683A695A603B685B6803F09A
:104398000303032B27D03B689B68002B0BD03B689B
:1043A8009B68012B07D03B689B68022B03D0D02168
:1043B8002548FFF77AF87B68DB683B617B695B001F
:1043C800032202FA03F3DB433A6913403B613B687B
:1043D8009A687B695B0002FA03F33A6913433B610D
:1043E8007B683A69DA603B685B6803F00303022B79
:1043F80040F0F0807B68154A934239D07B68144AB4
:10440800934235D07B68134A934231D07B68124A75
:1044180093422DD07B68114A934229D07B68104A79
:10442800934225D07B680F4A934221D07B680E4A7D
:1044380093421DD07B680D4A934219D0DE21024871
:10444800FFF733F814E000BFE0AD000800000240B9
:104458000004024000080240000C02400010024024
:104468000014024000180240001C024000200240D4
:104478003B681B69002B00F089803B681B69092B8E
:1044880000F084803B681B69002B7FD03B681B6968
:10449800002B7BD03B681B69002B77D03B681B69DE
:1044A800002B73D03B681B69012B6FD03B681B69DD
:1044B800012B6BD03B681B69022B67D03B681B69DB
:1044C800022B63D03B681B69022B5FD03B681B69DA
:1044D800032B5BD03B681B69042B57D03B681B69D7
:1044E800042B53D03B681B69042B4FD03B681B69D6
:1044F800052B4BD03B681B69052B47D03B681B69D4
:10450800092B43D03B681B69062B3FD03B681B69CE
:10451800092B3BD03B681B69072B37D03B681B69CD
:10452800072B33D03B681B69072B2FD03B681B69CF
:10453800082B2BD03B681B69082B27D03B681B69CD
:10454800082B23D03B681B69092B1FD03B681B69CC
:10455800092B1BD03B681B690A2B17D03B681B69CA
:104568000A2B13D03B681B690C2B0FD03B681B69C7
:104578000C2B0BD03B681B690C2B07D03B681B69C5
:104588000F2B03D0DF218948FEF78FFF7B69DA08FC
:104598007B68083253F822303B617B6903F00703DC
:1045A8009B000F2202FA03F3DB433A6913403B6195
:1045B8003B681A697B6903F007039B0002FA03F35F
:1045C8003A6913433B617B69DA087B6808323969C9
:1045D80043F822107B681B683B617B695B00032200
:1045E80002FA03F3DB433A6913403B613B685B68BB
:1045F80003F003027B695B0002FA03F33A69134391
:104608003B617B683A691A603B685B6803F4403336
:10461800002B00F0BB800023BB60654B5B6C644AD9
:1046280043F480435364624B5B6C03F48043BB6088
:10463800BB68604A7B699B08023352F823303B61B0
:104648007B6903F003039B000F2202FA03F3DB43A9
:104658003A6913403B617B68574A934231D07B6883
:10466800564A93422BD07B68554A934225D07B68A3
:10467800544A93421FD07B68534A934219D07B68AF
:10468800524A934213D07B68514A93420DD07B68BB
:10469800504A934207D07B684F4A934201D108237E
:1046A80010E009230EE007230CE006230AE00523A7
:1046B80008E0042306E0032304E0022302E00123C8
:1046C80000E000237A6902F00302920093401A4640
:1046D8003B6913433B6137497B699B0802333A695D
:1046E80041F823203D4B9B683B61FB68DB433A69FB
:1046F80013403B613B685B6803F48013002B03D0D5
:104708003A69FB6813433B61344A3B699360334B16
:10471800DB683B61FB68DB433A6913403B613B68FC
:104728005B6803F40013002B03D03A69FB6813435A
:104738003B612A4A3B69D360284B5B683B61FB6855
:10474800DB433A6913403B613B685B6803F4003321
:10475800002B03D03A69FB6813433B611F4A3B694E
:1047680053601E4B1B683B61FB68DB433A6913408F
:104778003B613B685B6803F48033002B03D03A69E4
:10478800FB6813433B61154A3B6913607B6901333E
:104798007B613B681A687B6922FA03F3002B7FF47C
:1047A80097AD00BF00BF1837BD4680BDE0AD00081B
:1047B8000038024000380140000002400004024076
:1047C80000080240000C02400010024000140240A1
:1047D80000180240001C024000200240003C01403A
:1047E80080B582B000AF78600B467B8013467B7043
:1047F8007B88002B04D07B881B0C1B04002B04D067
:104808004FF4D0710E48FEF750FE7B78002B07D08E
:104818007B78012B04D040F2A1110948FEF745FE30
:104828007B78002B03D07A887B689A6103E07B88C9
:104838001A047B689A6100BF0837BD4680BD00BF77
:10484800E0AD000880B58AB000AF78607B68002BC7
:1048580001D10123F0E27B681B680F2B04D94FF4C8
:10486800B1719A48FEF721FE7B681B6803F00103CB
:10487800002B61D07B685B68002B0CD07B685B6881
:10488800012B08D07B685B68052B04D040F26711C8
:104898008E48FEF70AFE8E4B9B6803F00C03042B30
:1048A8000CD08B4B9B6803F00C03082B12D1884B60
:1048B8005B6803F48003B3F5800F0BD1844B1B684E
:1048C80003F40033002B36D07B685B68002B32D1B1
:1048D8000123B1E27B685A687E4BD2B21A707B68BA
:1048E8005B68002B13D0FFF7C9F8386208E0FFF7C0
:1048F800C5F802463B6AD31A642B01D903239BE20D
:10490800734B1B6803F40033002BF0D014E0FFF75F
:10491800B5F8386208E0FFF7B1F802463B6AD31AE7
:10492800642B01D9032387E2694B1B6803F4003326
:10493800002BF0D100E000BF7B681B6803F0020386
:10494800002B00F08E807B68DB68002B08D07B682A
:10495800DB68012B04D040F299115C48FEF7A5FDF5
:104968007B681B691F2B04D94FF4CD715748FEF79C
:104978009CFD574B9B6803F00C03002B0BD0544B4A
:104988009B6803F00C03082B26D1514B5B6803F49A
:104998008003002B20D14E4B1B6803F00203002B31
:1049A80005D07B68DB68012B01D0012344E2484B2A
:1049B8001B6823F0F8027B681B69F821B961B969A3
:1049C80091FAA1F179617969B1FA81F1C9B28B40A3
:1049D8003F4913430B6044E07B68DB68002B2AD017
:1049E8003D4B01221A60FFF749F8386208E0FFF7EB
:1049F80045F802463B6AD31A022B01D903231BE26E
:104A0800334B1B6803F00203002BF0D0304B1B68BC
:104A180023F0F8027B681B69F8213961396991FA3A
:104A2800A1F1F960F968B1FA81F1C9B28B4028495E
:104A380013430B6015E0284B00221A60FFF71EF89D
:104A4800386208E0FFF71AF802463B6AD31A022BCD
:104A580001D90323F0E11E4B1B6803F00203002B6E
:104A6800F0D17B681B6803F00803002B47D07B68F4
:104A78005B69002B08D07B685B69012B04D04FF47D
:104A8800ED711248FEF711FD7B685B69002B16D0AB
:104A9800124B01221A60FEF7F1FF386208E0FEF7B8
:104AA800EDFF02463B6AD31A022B01D90323C3E167
:104AB800074B5B6F03F00203002BF0D01FE0074B9E
:104AC80000221A60FEF7DAFF386212E01CAE000816
:104AD800003802400238024000004742800E474238
:104AE800FEF7CCFF02463B6AD31A022B01D90323F7
:104AF800A2E19D4B5B6F03F00203002BF0D17B68B2
:104B08001B6803F00403002B00F08E80002387F855
:104B180027307B689B68002B0CD07B689B68012B37
:104B280008D07B689B68052B04D040F206218F488B
:104B3800FEF7BBFC8C4B1B6C03F08053002B10D191
:104B48000023BB60884B1B6C874A43F08053136477
:104B5800854B1B6C03F08053BB60BB68012387F84F
:104B68002730834B1B68824A43F480731360804B61
:104B78001B6803F48073002B18D17D4B1B687C4A9B
:104B880043F480731360FEF779FF386208E0FEF79C
:104B980075FF02463B6AD31A022B01D903234BE166
:104BA800734B1B6803F48073002BF0D07B689A6802
:104BB800704BD2B21A707B689B68002B15D0FEF739
:104BC8005DFF38620AE0FEF759FF02463B6AD31AD6
:104BD80041F28832934201D903232DE1624B1B6FC6
:104BE80003F00203002BEED014E0FEF747FF386213
:104BF8000AE0FEF743FF02463B6AD31A41F28832C5
:104C0800934201D9032317E1574B1B6F03F00203AB
:104C1800002BEED197F82730012B05D1524B1B6C96
:104C2800514A23F0805313647B689B69002B0CD096
:104C38007B689B69012B08D07B689B69022B04D099
:104C48004FF413714948FEF730FC7B689B69002BD1
:104C580000F0F180444B9B6803F00C03082B00F034
:104C6800B6807B689B69022B40F09A807B68DB6981
:104C7800002B09D07B68DB69B3F5800F04D040F2C4
:104C880055213A48FEF711FC7B681B6A3F2B04D973
:104C980040F256213548FEF708FC7B685B6ABF2B5B
:104CA80004D97B685B6AB3F5D87F04D940F25721F1
:104CB8002E48FEF7FAFB7B689B6A022B10D07B68B4
:104CC8009B6A042B0CD07B689B6A062B08D07B68F8
:104CD8009B6A082B04D04FF416712448FEF7E5FBB5
:104CE8007B68DB6A012B03D97B68DB6A0F2B04D94D
:104CF80040F259211D48FEF7D8FB1F4B00221A60CD
:104D0800FEF7BCFE386208E0FEF7B8FE02463B6AD2
:104D1800D31A642B01D903238EE0134B1B6803F0CD
:104D28000073002BF0D1104B5A68144B13407A686B
:104D3800D1697A68126A11437A68526A92011143FA
:104D48007A68D26A120611437A68926A5208013A5E
:104D580012040A43044913434B60074B01221A60AB
:104D6800FEF78CFE386214E0003802401CAE0008E2
:104D78000070004070380240600047420080BCF07C
:104D8800FEF77CFE02463B6AD31A642B01D9032343
:104D980052E02B4B1B6803F00073002BF0D04AE065
:104DA800284B00221A60FEF769FE386208E0FEF719
:104DB80065FE02463B6AD31A642B01D903233BE004
:104DC8001F4B1B6803F00073002BF0D133E07B68A6
:104DD8009B69012B01D101232EE0194B5B68FB6114
:104DE800FB6903F480027B68DB699A4221D1FB6985
:104DF80003F03F027B681B6A9A421AD1FA6947F6A8
:104E0800C07313407A68526A9201934211D1FB69C8
:104E180003F440327B689B6A5B08013B1B049A429F
:104E280007D1FB6903F070627B68DB6A1B069A4254
:104E380001D0012300E0002318462837BD4680BD75
:104E4800003802406000474280B586B000AF786005
:104E580039607B68002B01D1012376E17B681B68F0
:104E6800002B03D07B681B680F2B04D94FF43471D7
:104E78007748FEF71AFB3B68002B19D03B68012BDB
:104E880016D03B68022B13D03B68032B10D03B682D
:104E9800042B0DD03B68052B0AD03B68062B07D0A6
:104EA8003B68072B04D040F2D1216948FEF7FDFA90
:104EB800684B1B6803F00F033A689A420CD9654B9C
:104EC8003A68D2B21A70634B1B6803F00F033A6852
:104ED8009A4201D0012338E17B681B6803F0020382
:104EE800002B49D07B681B6803F00403002B05D016
:104EF800594B9B68584A43F4E05393607B681B689E
:104F080003F00803002B05D0534B9B68524A43F427
:104F1800604393607B689B68002B24D07B689B6808
:104F2800802B20D07B689B68902B1CD07B689B686B
:104F3800A02B18D07B689B68B02B14D07B689B682B
:104F4800C02B10D07B689B68D02B0CD07B689B68EB
:104F5800E02B08D07B689B68F02B04D040F2F52149
:104F68003B48FEF7A2FA3C4B9B6823F0F0027B68B3
:104F78009B68394913438B607B681B6803F0010306
:104F8800002B51D07B685B68002B0CD07B685B687A
:104F9800012B08D07B685B68022B04D04FF43F716B
:104FA8002B48FEF782FA7B685B68012B07D12A4BF6
:104FB8001B6803F40033002B15D10123C5E07B687F
:104FC8005B68022B07D1244B1B6803F00073002B8E
:104FD80009D10123B9E0204B1B6803F00203002B21
:104FE80001D10123B1E01C4B9B6823F003027B68CD
:104FF8005B68194913438B60FEF740FD78610AE04E
:10500800FEF73CFD02467B69D31A41F2883293428F
:1050180001D9032399E0104B9B6803F00C027B68CD
:105028005B689B009A42EBD10A4B1B6803F00F03A5
:105038003A689A4212D2074B3A68D2B21A70054BB4
:105048001B6803F00F033A689A4207D001237CE0FB
:105058001CAE0008003C0240003802407B681B6818
:1050680003F00403002B25D07B68DB68002B18D0E5
:105078007B68DB68B3F5805F13D07B68DB68B3F5CA
:10508800A05F0ED07B68DB68B3F5C05F09D07B6892
:10509800DB68B3F5E05F04D040F239312D48FEF704
:1050A80004FA2D4B9B6823F4E0527B68DB682A499D
:1050B80013438B607B681B6803F00803002B26D022
:1050C8007B681B69002B18D07B681B69B3F5805F70
:1050D80013D07B681B69B3F5A05F0ED07B681B6992
:1050E800B3F5C05F09D07B681B69B3F5E05F04D0F6
:1050F8004FF450711748FEF7D8F9174B9B6823F403
:1051080060427B681B69DB00134913438B6000F026
:105118002BF80146104B9B6803F0F003F0223A612C
:105128003A6992FAA2F2FA60FA68B2FA82F2D2B254
:10513800D3400A4AD35C21FA03F3094A1360094BA6
:105148001B681846FEF758FC002318461837BD465A
:1051580080BD00BF1CAE00080038024090AE0008B9
:10516800280000202C0000202DE9B04F90B000AF9F
:1051780000237B630023FB6300233B630023BB63A3
:10518800594B9B6803F00C03082B0DD0082B00F239
:10519800A280002B02D0042B03D09CE0534BBB63AE
:1051A8009CE0534BBB6399E04F4B5B6803F03F03B4
:1051B8007B634D4B5B6803F48003002B27D04A4B7D
:1051C8005B689B0900223B627A623B6AC3F3080072
:1051D8000021474B03FB01F2002300FB03F31344B8
:1051E800434AA0FB0221F962BA62FA6A1344FB62DD
:1051F8007B6B0022BB61FA61D7E90623D7E90A0174
:10520800FBF7A4FC02460B461346FB6355E0364BFE
:105218005B689B0900223B617A613B69C3F3080A1A
:105228004FF0000B52465B464FF000004FF0000174
:10523800590141EAD261500102460B46B2EB0A0815
:1052480063EB0B094FF000024FF000034FEA89139C
:1052580043EA98634FEA8812B2EB080463EB090546
:105268004FF000024FF00003EB0043EA5473E200F2
:1052780014461D4614EB0A033B6045EB0B037B60A9
:105288004FF000024FF00003D7E9004529468B0292
:1052980020462946044643EA945301468A021046AA
:1052A80019467B6B0022BB60FA60D7E90223FBF743
:1052B8004DFC02460B461346FB630B4B5B681B0C0D
:1052C80003F0030301335B003B63FA6B3B6BB2FBF8
:1052D800F3F3BB6302E0054BBB6300BFBB6B18462F
:1052E8004037BD46BDE8B08F003802400024F400C6
:1052F80040787D0180B400AF024B1B681846BD465C
:1053080080BC70472800002080B582B000AFFFF74E
:10531800F1FF01460B4B9B6803F4E0534FF4E05256
:105328007A607A6892FAA2F23A603A68B2FA82F23D
:10533800D2B2D340044AD35C21FA03F318460837A3
:10534800BD4680BD00380240A0AE000880B582B0DE
:1053580000AFFFF7CFFF01460B4B9B6803F4604398
:105368004FF460427A607A6892FAA2F23A603A6838
:10537800B2FA82F2D2B2D340044AD35C21FA03F3E0
:1053880018460837BD4680BD00380240A0AE000868
:1053980080B582B000AF78607B68002B01D1012313
:1053A800B7E07B689B69002B31D07B681B685B4A40
:1053B800934213D07B681B68594A93420ED07B688E
:1053C8001B68584A934209D07B681B68564A934227
:1053D80004D040F26D115548FEF767F87B689B6969
:1053E800002B37D07B689B69B3F5807F32D07B6810
:1053F8009B69B3F5007F2DD07B689B69B3F5407F2F
:1054080028D04FF4B7714948FEF74FF822E07B687F
:105418001B68424A93421DD07B681B68404A9342EE
:1054280018D07B681B683F4A934213D07B681B687F
:105438003F4A93420ED07B681B683E4A934209D08C
:105448007B681B68384A934204D04FF4B9713748D7
:10545800FEF72BF87B689B68002B09D07B689B685C
:10546800B3F5805F04D04FF4BA713048FEF71DF8E9
:105478007B68DB69002B09D07B68DB69B3F5004FDB
:1054880004D040F275112948FEF70FF87B6893F8AD
:105498004130DBB2002B06D17B68002283F8402024
:1054A8007868FEF77FF87B68242283F841207B68C0
:1054B8001B68DA687B681B6822F40052DA60786837
:1054C80000F0D4FD7B681B681A697B681B6822F4AE
:1054D80090421A617B681B685A697B681B6822F0D6
:1054E8002A025A617B681B68DA687B681B6842F489
:1054F8000052DA607B6800225A647B68202283F8B5
:1055080041207B68202283F842207B6800225A636E
:10551800002318460837BD4680BD00BF0010014073
:1055280000440040004800400014014054AE000808
:10553800004C00400050004080B58AB002AFF860CF
:10554800B9603B601346FB8000237B61FB6893F8DE
:105558004130DBB2202B6DD1BB68002B02D0FB8819
:10556800002B01D1012366E0FB6800225A64FB6826
:10557800212283F84120FEF781FA7861FB68FA88D6
:105588009A84FB68FA88DA84FB689B68B3F5805FC5
:1055980008D1FB681B69002B04D10023FB61BB68A1
:1055A800BB6103E0BB68FB610023BB612AE03B6889
:1055B80000937B6900228021F86800F014FB034601
:1055C800002B01D0032336E0FB69002B0BD1BB690C
:1055D8001B881A46FB681B68C2F308025A60BB693D
:1055E8000233BB6107E0FB691A78FB681B685A60E5
:1055F800FB690133FB61FB68DB8C9BB2013B9AB210
:10560800FB68DA84FB68DB8C9BB2002BCFD13B684C
:1056180000937B6900224021F86800F0E4FA034611
:10562800002B01D0032306E0FB68202283F84120E9
:10563800002300E0022318462037BD4680BD80B510
:1056480084B000AFF860B9601346FB80FB6893F83C
:105658004230DBB2202B12D1BB68002B02D0FB8872
:10566800002B01D101230BE0FB6800221A63FB88A1
:105678001A46B968F86800F024FB034600E00223E4
:1056880018461037BD4680BD80B5BAB000AF786007
:105698007B681B681B68C7F8E4307B681B68DB689D
:1056A800C7F8E0307B681B685B69C7F8DC3000230B
:1056B800C7F8D8300023C7F8D430D7F8E43003F05F
:1056C8000F03C7F8D830D7F8D830002B0FD1D7F848
:1056D800E43003F02003002B09D0D7F8E03003F0C2
:1056E8002003002B03D0786800F001FC5BE2D7F8B8
:1056F800D830002B00F0DE80D7F8DC3003F001034F
:10570800002B06D1D7F8E03003F49073002B00F09B
:10571800D180D7F8E43003F00103002B0BD0D7F881
:10572800E03003F48073002B05D07B685B6C43F09A
:1057380001027B685A64D7F8E43003F00403002BB5
:105748000BD0D7F8DC3003F00103002B05D07B68C1
:105758005B6C43F002027B685A64D7F8E43003F0CC
:105768000203002B0BD0D7F8DC3003F00103002B29
:1057780005D07B685B6C43F004027B685A64D7F8F9
:10578800E43003F00803002B11D0D7F8E03003F021
:105798002003002B05D1D7F8DC3003F00103002BE0
:1057A80005D07B685B6C43F008027B685A647B68B1
:1057B8005B6C002B00F0F281D7F8E43003F0200393
:1057C800002B08D0D7F8E03003F02003002B02D0DC
:1057D800786800F08CFB7B681B685B6903F040030A
:1057E800402B0CBF01230023DBB2C7F8D4307B6801
:1057F8005B6C03F00803002B03D1D7F8D430002BDF
:105808004FD0786800F096FA7B681B685B6903F0F4
:105818004003402B41D17B681B681433C7F89C3088
:10582800D7F89C3053E8003FC7F89830D7F898303D
:1058380023F04003C7F8D0307B681B681433D7F8CF
:10584800D020C7F8A820C7F8A430D7F8A410D7F8F4
:10585800A82041E80023C7F8A030D7F8A030002BD3
:10586800D9D17B68DB6B002B13D07B68DB6B7E4A5E
:105878001A657B68DB6B1846FEF76FFC0346002B46
:1058880016D07B68DB6B1B6D7A68D26B1046984725
:105898000EE0786800F093F90AE0786800F08FF974
:1058A80006E0786800F08BF97B6800225A6475E19D
:1058B80000BF73E17B681B6B012B40F04F81D7F869
:1058C800E43003F01003002B00F04881D7F8E030F3
:1058D80003F01003002B00F041810023BB607B68BC
:1058E8001B681B68BB607B681B685B68BB60BB6828
:1058F8007B681B685B6903F04003402B40F0B6806F
:105908007B68DB6B1B685B68A7F8BE30B7F8BE30F6
:10591800002B00F045817B689B8DB7F8BE209A422A
:1059280080F03E817B68B7F8BE20DA857B68DB6B48
:10593800DB69B3F5807F00F088807B681B680C33D7
:10594800C7F88830D7F8883053E8003FC7F8843064
:10595800D7F8843023F48073C7F8B8307B681B68A5
:105968000C33D7F8B820C7F89420C7F89030D7F888
:105978009010D7F8942041E80023C7F88C30D7F866
:105988008C30002BD9D17B681B6814337B677B6F05
:1059980053E8003F3B673B6F23F00103C7F8B4307F
:1059A8007B681B681433D7F8B420C7F88020FB67DE
:1059B800F96FD7F8802041E80023BB67BB6F002B45
:1059C800E1D17B681B6814333B663B6E53E8003FAC
:1059D800FB65FB6D23F04003C7F8B0307B681B689C
:1059E8001433D7F8B020FA66BB66B96EFA6E41E890
:1059F80000237B667B6E002BE3D17B68202283F833
:105A080042207B6800221A637B681B680C33FB64A6
:105A1800FB6C53E8003FBB64BB6C23F01003C7F872
:105A2800AC307B681B680C33D7F8AC20BA657B6553
:105A3800796DBA6D41E800233B653B6D002BE3D1DE
:105A48007B68DB6B1846FEF718FB7B6802225A63FB
:105A58007B689A8D7B68DB8D9BB2D31A9BB2194603
:105A6800786800F0B5F89BE0015E00087B689A8DC5
:105A78007B68DB8D9BB2D31AA7F8CE307B68DB8DB1
:105A88009BB2002B00F08E80B7F8CE30002B00F0D0
:105A980089807B681B680C33BB63BB6B53E8003F92
:105AA8007B637B6B23F49073C7F8C8307B681B68F3
:105AB8000C33D7F8C8207A643B64396C7A6C41E8B7
:105AC8000023FB63FB6B002BE3D17B681B6814335B
