:020000040800F2
:100000000000022075370008D1340008D7340008FA
:10001000DD340008E3340008E93400080000000083
:10002000000000000000000000000000EF340008A5
:10003000FD340008000000000B35000819350008E9
:10004000C5370008C5370008C5370008C5370008A0
:10005000C5370008C5370008C5370008C537000890
:10006000C5370008C5370008C5370008C537000880
:10007000C5370008C5370008C5370008C537000870
:10008000C5370008C537000825350008C537000802
:10009000C5370008C5370008C537000841350008D6
:1000A000C5370008C5370008C5370008C537000840
:1000B000C53700085135000865350008C537000808
:1000C000C5370008C5370008C5370008C537000820
:1000D000C537000879350008C53700088D35000898
:1000E000A1350008C5370008C5370008C537000826
:1000F000C5370008C5370008C5370008C5370008F0
:10010000C5370008C5370008C5370008C5370008DF
:10011000B1350008C5370008C5370008C5370008E5
:10012000C5370008C5370008C5370008C5370008BF
:10013000C5370008C5370008C5370008C5370008AF
:10014000C5370008C5370008C5370008C53700089F
:10015000C5370008C5370008C5370008C53700088F
:10016000C5370008C5370008C5370008C53700087F
:10017000C5370008C5370008C53700080000000073
:08018000C5370008C53700086F
:1001900010B5054C237833B9044B13B10448AFF3C1
:1001A00000800123237010BD2C02002000000000FD
:1001B000FCB3000808B5034B1BB103490348AFF378
:1001C000008008BD0000000030020020FCB30008E1
:1001D000034613F8012B002AFBD1181A0138704787
:1001E00001F0FF01102A2BDB10F0070F08D010F8E8
:1001F000013B013A8B422DD010F0070F42B3F6D1EC
:10020000F0B441EA012141EA014122F007047FF004
:1002100000070023F0E80256083C85EA010586EA5B
:10022000010685FA47F5A3FA87F586FA47F6A5FA97
:1002300087F68EB9EED1F0BC01F0FF0102F00702A3
:1002400032B110F8013B013A83EA010313B1F8D14E
:100250000020704701387047002D06BF354603382F
:10026000073815F0010F07D1013015F4807F02BF68
:10027000013015F4C03F0130F0BC0138704700BFB9
:1002800081F0004102E000BF83F0004330B54FEA47
:1002900041044FEA430594EA050F08BF90EA020FB4
:1002A0001FBF54EA000C55EA020C7FEA645C7FEA47
:1002B000655C00F0E2804FEA5454D4EB5555B8BF6A
:1002C0006D420CDD2C4480EA020281EA030382EADB
:1002D000000083EA010180EA020281EA0303362D6D
:1002E00088BF30BD11F0004F4FEA01314FF4801C40
:1002F0004CEA113102D0404261EB410113F0004F52
:100300004FEA03334CEA133302D0524263EB430308
:1003100094EA050F00F0A780A4F10104D5F1200EA6
:100320000DDB02FA0EFC22FA05F2801841F1000101
:1003300003FA0EF2801843FA05F359410EE0A5F1D5
:1003400020050EF1200E012A03FA0EFC28BF4CF006
:10035000020C43FA05F3C01851EBE37101F00045BC
:1003600007D54FF0000EDCF1000C7EEB00006EEBC9
:100370000101B1F5801F1BD3B1F5001F0CD3490853
:100380005FEA30004FEA3C0C04F101044FEA4452AA
:1003900012F5800F80F09A80BCF1004F08BF5FEA31
:1003A000500C50F1000041EB045141EA050130BD11
:1003B0005FEA4C0C404141EB0101013C28BFB1F523
:1003C000801FE9D291F0000F04BF01460020B1FA6E
:1003D00081F308BF2033A3F10B03B3F120020CDA41
:1003E0000C3208DD02F1140CC2F10C0201FA0CF01F
:1003F00021FA02F10CE002F11402D8BFC2F1200C84
:1004000001FA02F120FA0CFCDCBF41EA0C01904039
:10041000E41AA2BF01EB0451294330BD6FEA040482
:100420001F3C1CDA0C340EDC04F11404C4F120026D
:1004300020FA04F001FA02F340EA030021FA04F37F
:1004400045EA030130BDC4F10C04C4F1200220FAD6
:1004500002F001FA04F340EA0300294630BD21FA14
:1004600004F0294630BD94F0000F83F4801306BFDA
:1004700081F480110134013D4EE77FEA645C18BFCE
:100480007FEA655C29D094EA050F08BF90EA020F65
:1004900005D054EA000C04BF1946104630BD91EA5D
:1004A000030F1EBF0021002030BD5FEA545C05D160
:1004B0004000494128BF41F0004130BD14F580049F
:1004C0003CBF01F5801130BD01F0004545F0FE4113
:1004D00041F470014FF0000030BD7FEA645C1ABF48
:1004E000194610467FEA655C1CBF0B46024650EA7F
:1004F000013406BF52EA033591EA030F41F40021AB
:1005000030BD00BF90F0000F04BF0021704730B530
:100510004FF4806404F132044FF000054FF0000105
:1005200050E700BF90F0000F04BF0021704730B5C6
:100530004FF4806404F1320410F0004548BF40429B
:100540004FF000013EE700BF42004FEAE2014FEAF0
:1005500031014FEA02701FBF12F07F4393F07F4FCB
:1005600081F06051704732F07F4208BF704793F0CE
:100570007F4F04BF41F40021704730B54FF46074E1
:1005800001F0004521F000411CE700BF50EA0102E4
:1005900008BF704730B54FF000050AE050EA01028D
:1005A00008BF704730B511F0004502D5404261EBFD
:1005B00041014FF4806404F132045FEA915C3FF43E
:1005C000D8AE4FF003025FEADC0C18BF03325FEADB
:1005D000DC0C18BF033202EBDC02C2F1200300FA8C
:1005E00003FC20FA02F001FA03FE40EA0E0021FAB1
:1005F00002F11444BDE600BF70B54FF0FF0C4CF49F
:10060000E06C1CEA11541DBF1CEA135594EA0C0F50
:1006100095EA0C0F00F0DEF82C4481EA030621EA8B
:100620004C5123EA4C5350EA013518BF52EA0335C6
:1006300041F4801143F4801338D0A0FB02CE4FF078
:100640000005E1FB02E506F00042E0FB03E54FF0A8
:100650000006E1FB03569CF0000F18BF4EF0010EA0
:10066000A4F1FF04B6F5007F64F5407404D25FEA9C
:100670004E0E6D4146EB060642EAC62141EA55514F
:100680004FEAC52040EA5E504FEACE2EB4F1FD0C91
:1006900088BFBCF5E06F1ED8BEF1004F08BF5FEA0F
:1006A000500E50F1000041EB045170BD06F00046C1
:1006B00046EA010140EA020081EA0301B4EB5C046E
:1006C000C2BFD4EB0C0541EA045170BD41F4801166
:1006D0004FF0000E013C00F3AB8014F1360FDEBF8B
:1006E000002001F0004170BDC4F10004203C35DA67
:1006F0000C341BDC04F11404C4F1200500FA05F3EA
:1007000020FA04F001FA05F240EA020001F000428A
:1007100021F0004110EBD37021FA04F642EB060100
:100720005EEA430E08BF20EAD37070BDC4F10C042A
:10073000C4F1200500FA04F320FA05F001FA04F2EE
:1007400040EA020001F0004110EBD37041F10001DA
:100750005EEA430E08BF20EAD37070BDC4F12005E5
:1007600000FA05F24EEA020E20FA04F301FA05F24D
:1007700043EA020321FA04F001F0004121FA04F2F5
:1007800020EA020000EBD3705EEA430E08BF20EAC5
:10079000D37070BD94F0000F0FD101F000464000FF
:1007A00041EB010111F4801F08BF013CF7D041EA81
:1007B000060195F0000F18BF704703F00046520085
:1007C00043EB030313F4801F08BF013DF7D043EA56
:1007D0000603704794EA0C0F0CEA135518BF95EA0C
:1007E0000C0F0CD050EA410618BF52EA4306D1D193
:1007F00081EA030101F000414FF0000070BD50EAB2
:10080000410606BF1046194652EA430619D094EA3B
:100810000C0F02D150EA013613D195EA0C0F05D125
:1008200052EA03361CBF104619460AD181EA030179
:1008300001F0004141F0FE4141F470014FF0000031
:1008400070BD41F0FE4141F4780170BD70B54FF0CC
:10085000FF0C4CF4E06C1CEA11541DBF1CEA13554C
:1008600094EA0C0F95EA0C0F00F0A7F8A4EB05042E
:1008700081EA030E52EA03354FEA013100F0888025
:100880004FEA03334FF0805545EA131343EA1263EE
:100890004FEA022245EA111545EA10654FEA0026A3
:1008A0000EF000419D4208BF964244F1FD0404F55C
:1008B000407402D25B084FEA3202B61A65EB0305B8
:1008C0005B084FEA32024FF480104FF4002CB6EB75
:1008D000020E75EB030E22BFB61A754640EA0C00F5
:1008E0005B084FEA3202B6EB020E75EB030E22BF35
:1008F000B61A754640EA5C005B084FEA3202B6EB76
:10090000020E75EB030E22BFB61A754640EA9C0034
:100910005B084FEA3202B6EB020E75EB030E22BF04
:10092000B61A754640EADC0055EA060E18D04FEAC2
:10093000051545EA16754FEA06164FEAC30343EA62
:1009400052734FEAC2025FEA1C1CC0D111F4801F2F
:100950000BD141EA00014FF000004FF0004CB6E728
:1009600011F4801F04BF01430020B4F1FD0C88BFC7
:10097000BCF5E06F3FF6AFAEB5EB030C04BFB6EBD2
:10098000020C5FEA500C50F1000041EB045170BDC5
:100990000EF0004E4EEA113114EB5C04C2BFD4EBF2
:1009A0000C0541EA045170BD41F480114FF0000E76
:1009B000013C90E645EA060E8DE60CEA135594EAF2
:1009C0000C0F08BF95EA0C0F3FF43BAF94EA0C0FF5
:1009D0000AD150EA01347FF434AF95EA0C0F7FF46A
:1009E00025AF104619462CE795EA0C0F06D152EABE
:1009F00003353FF4FDAE1046194622E750EA4106A2
:100A000018BF52EA43067FF4C5AE50EA41047FF4B2
:100A10000DAF52EA43057FF4EBAE12E74FF0FF3C17
:100A200006E000BF4FF0010C02E000BF4FF0010CE8
:100A30004DF804CD4FEA410C7FEA6C5C4FEA430C61
:100A400018BF7FEA6C5C1BD001B050EA410C0CBFB0
:100A500052EA430C91EA030F02BF90EA020F002012
:100A6000704710F1000F91EA030F58BF994208BF79
:100A700090422CBFD8176FEAE37040F00100704736
:100A80004FEA410C7FEA6C5C02D150EA013C07D18D
:100A90004FEA430C7FEA6C5CD6D152EA033CD3D0D8
:100AA0005DF8040B704700BF8446104662468C46D2
:100AB0001946634600E000BF01B5FFF7B7FF002805
:100AC00048BF10F1000F01BD4DF808EDFFF7F4FF2E
:100AD0000CBF012000205DF808FB00BF4DF808EDB9
:100AE000FFF7EAFF34BF012000205DF808FB00BFDC
:100AF0004DF808EDFFF7E0FF94BF012000205DF8FE
:100B000008FB00BF4DF808EDFFF7CEFF94BF0120B2
:100B100000205DF808FB00BF4DF808EDFFF7C4FFAB
:100B200034BF012000205DF808FB00BF4FEA410CF4
:100B30007FEA6C5C02D150EA013C0AD14FEA430CD7
:100B40007FEA6C5C02D152EA033C02D14FF0000014
:100B500070474FF0010070474FEA410212F5001252
:100B600015D211D56FF47873B3EB625212D94FEAF4
:100B7000C12343F0004343EA505311F0004F23FADE
:100B800002F018BF404270474FF00000704750EA33
:100B9000013005D111F0004008BF6FF000407047F0
:100BA0004FF00000704700BF4A0011D212F500124A
:100BB00011D20DD56FF47873B3EB62520ED44FEAB5
:100BC000C12343F0004343EA505323FA02F0704735
:100BD0004FF00000704750EA013002D14FF0FF3073
:100BE00070474FF0000070474FEA4102B2F1E04316
:100BF00024BFB3F5001CDCF1FE5C0DD901F0004C04
:100C00004FEAC0024CEA5070B2F1004F40EB830053
:100C100008BF20F00100704711F0804F21D113F17F
:100C20003872BCBF01F00040704741F480114FEAB8
:100C30005252C2F11802C2F1200C10FA0CF320FA41
:100C400002F018BF40F001004FEAC1234FEAD3235E
:100C500003FA0CFC40EA0C0023FA02F34FEA4303C8
:100C6000CCE77FEA625307D150EA01331EBF4FF051
:100C7000FE4040F44000704701F0004040F0FE406C
:100C800040F40000704700BF53B94AB9002908BFBB
:100C900000281CBF4FF0FF314FF0FF3000F0AAB921
:100CA000ADF1080C6DE904CE00F03CF8DDF804E08D
:100CB000DDE9022304B0704738B500220023044662
:100CC0000D46FFF70BFF28B920462946BDE83840FE
:100CD00000F00AB8204605F1004100F005F8404256
:100CE00061EB410138BD00BFD0B50C4B0022064678
:100CF0000F46FFF781FCFFF757FF0446FFF702FCA2
:100D0000074B0022FFF778FC02460B463046394677
:100D1000FFF7BAFAFFF748FF2146D0BD0000F03DCB
:100D20000000F0412DE9F047089D04468E46002B57
:100D30004DD18A42944669D9B2FA82F252B101FA8F
:100D400002F3C2F1200120FA01F10CFA02FC41EA9F
:100D5000030E94404FEA1C48210CBEFBF8F61FFA24
:100D60008CF708FB16E341EA034306FB07F19942BF
:100D70000AD91CEB030306F1FF3080F01F81994272
:100D800040F21C81023E63445B1AA4B2B3FBF8F04C
:100D900008FB103344EA034400FB07F7A7420AD9D3
:100DA0001CEB040400F1FF3380F00A81A74240F2FB
:100DB00007816444023840EA0640E41B00261DB166
:100DC000D4400023C5E900433146BDE8F0878B429B
:100DD00009D9002D00F0EF800026C5E9000130465A
:100DE0003146BDE8F087B3FA83F6002E4AD18B4234
:100DF00002D3824200F2F980841A61EB03030120DE
:100E00009E46002DE0D0C5E9004EDDE702B9FFDEC9
:100E1000B2FA82F2002A40F09280A1EB0C014FEA74
:100E20001C471FFA8CFE0126200CB1FBF7F307FBD1
:100E3000131140EA01410EFB03F0884208D91CEB74
:100E4000010103F1FF3802D2884200F2CB80434611
:100E5000091AA4B2B1FBF7F007FB101144EA0144F0
:100E60000EFB00FEA64508D91CEB040400F1FF317F
:100E700002D2A64500F2BB800846A4EB0E0440EA6D
:100E800003409CE7C6F12007B34022FA07FC4CEA76
:100E9000030C20FA07F401FA06F31C43F9404FEA69
:100EA0001C4900FA06F3B1FBF9F8200C1FFA8CFE7E
:100EB00009FB181140EA014108FB0EF0884202FAD2
:100EC00006F20BD91CEB010108F1FF3A80F0888093
:100ED000884240F28580A8F102086144091AA4B250
:100EE000B1FBF9F009FB101144EA014100FB0EFED1
:100EF0008E4508D91CEB010100F1FF346CD28E4500
:100F00006AD90238614440EA0840A0FB0294A1EB90
:100F10000E01A142C846A64656D353D05DB1B3EBED
:100F2000080261EB0E0101FA07F722FA06F3F1401D
:100F30001F43C5E9007100263146BDE8F087C2F1C4
:100F40002003D8400CFA02FC21FA03F3914001433C
:100F50004FEA1C471FFA8CFEB3FBF7F007FB103675
:100F60000B0C43EA064300FB0EF69E4204FA02F421
:100F700008D91CEB030300F1FF382FD29E422DD974
:100F8000023863449B1B89B2B3FBF7F607FB1633A9
:100F900041EA034106FB0EF38B4208D91CEB010129
:100FA00006F1FF3816D28B4214D9023E6144C91AA9
:100FB00046EA004638E72E46284605E70646E3E6B9
:100FC0001846F8E64B45A9D2B9EB020864EB0C0EC3
:100FD0000138A3E74646EAE7204694E74046D1E7D2
:100FE000D0467BE7023B614432E7304609E7644480
:100FF000023842E7704700BF80B483B000AF78602A
:101000007B681B017B6000BF7B685A1E7A60002BE7
:10101000FAD100BF00BF0C37BD465DF8047B7047B6
:1010200080B582B000AF0346FB71FB7903F0080383
:10103000002B05D0012208211E4803F017FD04E013
:10104000002208211B4803F011FDFB7903F0040383
:10105000002B05D001220421164803F007FD04E00F
:1010600000220421134803F001FDFB7903F0020381
:10107000002B05D0012202210E4803F0F7FC04E00A
:10108000002202210B4803F0F1FCFB7903F001037D
:10109000002B05D001220121064803F0E7FC04E003
:1010A00000220121034803F0E1FC00BF0837BD46E0
:1010B00080BD00BF000C024080B582B000AF034687
:1010C000FB71002240210F4803F0D0FC01222021B7
:1010D0000C4803F0CBFCFB7903F00F03DBB218469E
:1010E000FFF79EFF2320FFF787FF002220210548FE
:1010F00003F0BCFC2320FFF77FFF00BF0837BD468D
:1011000080BD00BF000C024080B582B000AF034636
:10111000FB712320FFF770FF00228021084803F0B5
:10112000A5FCFB791B09DBB21846FFF7C5FFFB796D
:101130001846FFF7C1FF00BF0837BD4680BD00BF9E
:10114000000C024080B584B000AF03460A46FB7134
:101150001346BB71FB79002B02D0012B03D005E0B5
:101160008023FB7302E0C023FB7300BFFA7BBB79D3
:101170001344FB73FB7B1846FFF7C6FF00BF103715
:10118000BD4680BD80B500AF054A0021002000F0BB
:101190006FF8034A0021012000F06AF800BF80BD0B
:1011A0000000002080B582B000AF0346FB71232011
:1011B000FFF722FF01228021084803F057FCFB794A
:1011C0001B09DBB21846FFF777FFFB791846FFF7DC
:1011D00073FF00BF0837BD4680BD00BF000C024052
:1011E00080B500AF43F69820FFF706FF002280216C
:1011F0001E4803F03BFC0320FFF75EFF43F69820F8
:10120000FFF7FAFE0320FFF757FF43F69820FFF79A
:10121000F3FE0320FFF750FF43F69820FFF7ECFEA4
:101220000220FFF749FF43F69820FFF7E5FE28204C
:10123000FFF76AFF43F69820FFF7DEFE0C20FFF76A
:1012400063FF43F69820FFF7D7FE0620FFF75CFF09
:1012500043F69820FFF7D0FE8020FFF755FF43F6B6
:101260009820FFF7C9FE00BF80BD00BF000C024000
:1012700080B582B000AF03463A60FB710B46BB718C
:10128000BA79FB7911461846FFF75CFF06E03B6828
:101290005A1C3A601B781846FFF784FF3B681B789E
:1012A000002BF4D100BF00BF0837BD4680BD000051
:1012B00080B588B000AF03463A60FB710B46BB7146
:1012C00007F10C033A680749184606F02FFB07F1AF
:1012D0000C02B979FB791846FFF7CAFF00BF203727
:1012E000BD4680BD18B4000880B500AF484B1B68F0
:1012F000484A1360484B93ED007A484BD3ED007A8F
:1013000077EE677A424BC3ED007A454B1B68454A3E
:101310001360454BD3ED006A444B93ED007AC6EE63
:10132000877AB7EE007A37EE877A414BD3ED007AB1
:1013300027EE277A364BD3ED007A27EE277A394B02
:10134000D3ED007A37EE277A394BD3ED006A314B73
:10135000D3ED007A66EEA77A77EE677A304BC3ED6D
:10136000007A2F4BD3ED007A9FED327AF4EEC77AF4
:10137000F1EE10FA02DD2A4B2F4A1A60284BD3ED0A
:10138000007AF5EEC07AF1EE10FA03D5244B4FF057
:1013900000021A60224B93ED007A284B1B6807EE7F
:1013A000903AF8EEE77A77EE676A254B1A68234B96
:1013B0001B68D31A07EE903AF8EEE77A86EEA77A22
:1013C000204B1A68204B1B68D31A07EE903AF8EEB0
:1013D000E77A27EE277A1C4B1B6807EE903AF8EE67
:1013E000E77A77EE277AFDEEE77A17EE903A1AB2AF
:1013F000164B1A80154B1B881BB200220021144883
:1014000003F079F84FF4FA7002F050FA00BF80BD93
:101410007003002074030020800300208403002058
:101420007C030020780300203C00002018000020EE
:10143000140000200000C8420000C842A40300209D
:10144000340000202C00002024000020A0030020F5
:101450005C04002080B500AF484B1B68484A13600D
:10146000484B93ED007A484BD3ED007A77EE677ADC
:10147000424BC3ED007A454B1B68454A1360454B10
:10148000D3ED006A444B93ED007AC6EE877AB7EE4F
:10149000007A37EE877A414BD3ED007A27EE277A30
:1014A000364BD3ED007A27EE277A394BD3ED007A0D
:1014B00037EE277A394BD3ED006A314BD3ED007A02
:1014C00066EEA77A77EE677A304BC3ED007A2F4B42
:1014D000D3ED007A9FED327AF4EEC77AF1EE10FA8E
:1014E00002DD2A4B2F4A1A60284BD3ED007AF5EE25
:1014F000C07AF1EE10FA03D5244B4FF000021A60C7
:10150000224B93ED007A284B1B6807EE903AF8EED9
:10151000E77A77EE676A254B1A68234B1B68D31A64
:1015200007EE903AF8EEE77A86EEA77A204B1A6833
:10153000204B1B68D31A07EE903AF8EEE77A27EEB5
:10154000277A1C4B1B6807EE903AF8EEE77A77EEA5
:10155000277AFDEEE77A17EE903A1AB2164B1A8008
:10156000154B1B881BB200221021144802F0C3FF48
:101570004FF4FA7002F09AF900BF80BD8803002092
:101580008C030020980300209C030020940300207B
:101590009003002040000020200000201C000020BC
:1015A0000000C8420000C842A80300203800002004
:1015B0003000002028000020A20300205C0400204E
:1015C00080B500AF4FF40071224803F037FA0346AC
:1015D000002B18D1204B01221A70204B00221A70C8
:1015E000FFF7D0FD1E4A04210020FFF741FE4FF413
:1015F0007A7002F05BF9FFF7C5FD1A4A002100205E
:10160000FFF736FE24E04FF48071124803F016FA1B
:101610000346002B1CD1104B00221A700F4B0122E5
:101620001A70FFF7AFFD104A03210020FFF720FEDC
:101630004FF47A7002F03AF9FFF7A4FD0B4A00214B
:101640000020FFF715FE0A4A01210120FFF710FED6
:1016500000BF80BD001002404A0200204B02002063
:101660001CB4000828B400083CB4000848B40008C2
:1016700054B4000880B500AF4FF400518C4803F01B
:10168000DDF90346002B40F01181642002F00EF9D1
:101690004FF40051864803F0D1F90346002B40F087
:1016A0000581844B1B78002B00F0BB80824B1B68AC
:1016B0000133814A1360804B1B68052B02DD7E4B92
:1016C00001221A607C4B1B68012B26D17B4BD3ED8A
:1016D000007AFDEEE77A17EE902A794B1A60FFF751
:1016E00051FD00F0F7FB774A00210020FFF7C0FD15
:1016F000724BD3ED007AF5EE407AF1EE10FA00F07D
:10170000D5806E4BD3ED007AFDEEE77A17EE902A86
:101710000A210120FFF7CCFDC8E0674B1B68022BB4
:1017200026D1694BD3ED007AFDEEE77A17EE902AC9
:10173000634B1A60FFF726FD00F0CCFB634A0021E3
:101740000020FFF795FD604BD3ED007AF5EE407A6F
:10175000F1EE10FA00F0AA805B4BD3ED007AFDEEBB
:10176000E77A17EE902A0A210120FFF7A1FD9DE0FC
:10177000514B1B68032B1AD1554B1B681A46504B13
:101780001A60FFF7FFFC00F0A5FB524A0021002081
:10179000FFF76EFD4E4B1B68002B00F087804C4B13
:1017A0001B681A460A210120FFF782FD7EE0424BAA
:1017B0001B68042B18D1484B1B68414A1360FFF784
:1017C000E1FC00F087FB454A00210020FFF750FDB7
:1017D000414B1B68002B69D03F4B1B681A460A21FE
:1017E0000120FFF765FD61E0334B1B68052B5DD1E0
:1017F0003B4B1B68324A1360FFF7C4FC00F06AFBE6
:10180000384A00210020FFF733FD354B1B68002BC1
:101810004CD0334B1B681A460A210120FFF748FDC4
:1018200044E0314B1B78002B40D0304B1B68013318
:101830002E4A13602D4B1B68022B02DD2B4B01221D
:101840001A602A4B1B68012B16D1294B01221A70F2
:10185000284B00221A70FFF795FC274A0021002030
:10186000FFF706FD4FF4967002F020F8234A00219E
:101870000120FFF7FDFC19E01C4B1B68022B15D162
:101880001B4B00221A701B4B01221A70FFF77AFCC7
:101890001B4A00210020FFF7EBFC4FF4967002F08A
:1018A00005F8164A00210120FFF7E2FC00BF80BDC9
:1018B000001002404A020020B803002080030020EC
:1018C0004800002064B40008980300206CB40008AD
:1018D000B403002074B40008C40300207CB40008E2
:1018E000C803002084B400084B020020BC03002081
:1018F0004C0200204D0200208CB4000898B400086F
:10190000A0B4000880B500AF4FF48051974803F0B1
:1019100095F80346002B40F02781642001F0C6FFB4
:101920004FF48051914803F089F80346002B40F0B2
:101930001B818F4B1B78002B00F0D1808D4B1B68D7
:10194000013B042B00F20F8101A252F823F000BFEB
:101950006519000897190008C9190008EB19000853
:10196000651A0008844B1B6807EE903AF8EEE77A98
:10197000824BC3ED007A814B1B681846FEF7E4FDED
:1019800002460B467E4805F0A9FF7E4A0E21002044
:10199000FFF76EFCE8E0784B1B6807EE903AF8EE34
:1019A000E77A794BC3ED007A774B1B681846FEF750
:1019B000CBFD02460B46754805F090FF714A0E219B
:1019C0000020FFF755FCCFE06B4B1B681A46704BAD
:1019D0001A606F4B1B6819466E4805F07FFF694A15
:1019E0000E210020FFF744FCBEE0634B1B68B3F5FB
:1019F000FA7F22DD684A0A210020FFF739FC13E054
:101A00005D4B1B681A460A210120FFF751FC4FF479
:101A1000FA7001F04BFF614A0A210120FFF728FC10
:101A20004FF4FA7001F042FF4FF480614F4803F029
:101A300005F80346012BE3D096E04F4B1B68584A4C
:101A40001360574B1B681946564805F047FF564A26
:101A50000A210020FFF70CFC4A4A0E210020FFF764
:101A600007FC81E0444B1B68B3F5FA7F22DD4A4A4C
:101A70000A210020FFF7FCFB13E03F4B1B681A46CE
:101A80000A210120FFF714FC4FF4FA7001F00EFF59
:101A9000424A0A210120FFF7EBFB4FF4FA7001F0F4
:101AA00005FF4FF48061314802F0C8FF0346012B67
:101AB000E3D058E0304B1B683C4A13603B4B1B683B
:101AC00019463B4805F00AFF374A0A210020FFF774
:101AD000CFFB2C4A0E210020FFF7CAFB43E0354B19
:101AE0001B78002B40D0344B1B68012B3CD1334B6F
:101AF0001B680133314A1360304B1B68022B02DD37
:101B00002E4B01221A602D4B1B68012B17D12C4B39
:101B100001221A70FFF736FB2A4A00210020FFF746
:101B2000A7FB294B1B881BB21A460A210020FFF78E
:101B3000BFFB264A00210120FFF79AFB14E01F4B50
:101B40001B68022B10D11E4B00221A70FFF71AFBE4
:101B50001F4A02210020FFF78BFB1E4A00210120B3
:101B6000FFF786FB00E000BF00BF80BD0010024011
:101B70004A020020B8030020480000208003002013
:101B8000ACB40008B4B4000898030020B8B400084E
:101B9000B4030020C0B40008C8B40008D0B40008E2
:101BA000C4030020DCB40008E4B40008C80300202B
:101BB000ECB400084B020020BC030020C00300204E
:101BC00049020020F4B4000844000020FCB40008DE
:101BD00010B5000820B5000880B500AF4FF40061D3
:101BE000224802F02BFF0346002B3DD1642001F078
:101BF0005DFE4FF400611D4802F020FF0346002BFC
:101C000032D11B4B1B78002B2ED01A4B1B78002B8C
:101C10002AD0194B1B680133174A1360164B1B68F7
:101C2000022B02DD144B01221A60134B1B68012B9F
:101C300005D1124A0A210120FFF71AFB14E00E4BCE
:101C40001B68022B10D10E4B93ED007A0D4BD3ED98
:101C5000007AB4EEE77AF1EE10FA00D404E00A4A12
:101C60000A210120FFF704FB00BF80BD00100240E5
:101C70004B0200204D020020AC03002034B50008C8
:101C80009C0300209803002038B5000880B500AF01
:101C90004FF40061354802F0D1FE0346002B62D1BB
:101CA000642001F003FE4FF40061304802F0C6FEEC
:101CB0000346002B57D12E4B1B78002B53D02D4BB6
:101CC0001A6813469B0013445B001A46294B1A609E
:101CD000294B1B68013B042B43D801A252F823F087
:101CE000F51C0008091D00081B1D00082D1D00081B
:101CF0003F1D00081F4B1B6842F20F72934227DD05
:101D00001C4B00221A6023E01A4B1B68B3F57A7F44
:101D100020DB184B00221A601CE0164B1B68174A88
:101D2000934219DD134B00221A6015E0114B1B681A
:101D3000B3F5FA7F12DD0F4B00221A600EE00D4B57
:101D40001B68B3F5FA7F0BDD0A4B00221A6007E02F
:101D500000BF06E000BF04E000BF02E000BF00E0FB
:101D600000BF00F0B7F800BF80BD00BF0010024008
:101D70004A02002048000020B80300203F420F0024
:101D800080B500AF4FF48061224802F057FE034651
:101D9000002B3CD1642001F089FD4FF480611D4887
:101DA00002F04CFE0346002B31D11B4B1B78002B5D
:101DB0002DD01A4B1B78002B29D0194B1B680133EF
:101DC000174A1360164B1B68022B02DD144B0122CD
:101DD0001A60134B1B68012B10D1124B93ED007A44
:101DE000114BD3ED007AB4EEE77AF1EE10FA05DB91
:101DF0000E4A0E210120FFF73BFA08E0084B1B6852
:101E0000022B04D10A4A0E210120FFF731FA00BF4C
:101E100080BD00BF001002404B0200204D02002098
:101E2000B003002084030020800300203CB500089C
:101E300040B5000880B582B000AF4FF48061214802
:101E400002F0FCFD0346002B37D1642001F02EFD8B
:101E50004FF480611B4802F0F1FD0346002B2CD1AA
:101E6000194B1B78002B28D0184B1A68184B83FB92
:101E700002139910D317C91A0B469B000B445B0041
:101E8000D31A7B607B6801337B607B68092B01DDA3
:101E900000237B600D4B1B680D4A82FB03129210DE
:101EA000DB17D21A13469B0013445B001A467B686B
:101EB0001344064A136000F00DF800BF0837BD4612
:101EC00080BD00BF001002404A02002048000020F0
:101ED0006766666680B500AF094A00210120FFF7FA
:101EE000C7F9084B1B681A460A210120FFF7E0F9E1
:101EF000044B1B681946044805F0F0FC00BF80BD88
:101F000044B50008480000204CB5000880B582B0F8
:101F100000AF7860391D64230122044803F019FFE3
:101F20007B6818460837BD4680BD00BF44050020C9
:101F300080B59AB000AF264B1B781A463B1D254949
:101F4000184605F06AFD3B1D2349184606F0A6FB1E
:101F50002149002006F0A2FB1F49002006F09EFB4D
:101F60001D49002006F09AFB0346184604F01CFFAA
:101F700053EC102B10461946FEF736FE0346174A5F
:101F80001360164B1B681846FEF7DEFA0EA3D3E962
:101F90000023FEF731FB02460B4610461946FEF7BA
:101FA00023FE03460E4A13600D4B1B680D4A136057
:101FB00064220021074804F03FFF054B00221A70FD
:101FC00000BF6837BD4680BDC976BE9F1A4F23400B
:101FD000240300205C02002054B5000860030020A8
:101FE000680300208403002080B59AB000AF264B20
:101FF0001B781A463B1D2549184605F00EFD3B1D72
:102000002349184606F04AFB2149002006F046FB0A
:102010001F49002006F042FB1D49002006F03EFB50
:102020000346184604F0C0FE53EC102B1046194628
:10203000FEF7DAFD0346174A1360164B1B68184675
:10204000FEF782FA0EA3D3E90023FEF7D5FA024683
:102050000B4610461946FEF7C7FD03460E4A1360AD
:102060000D4B1B680D4A136064220021074804F0E1
:10207000E3FE054B00221A7000BF6837BD4680BDE5
:10208000C976BE9F1A4F234025030020C0020020BE
:1020900054B50008640300206C0300209C0300205A
:1020A00080B584B000AF78607B681B688D4A93422E
:1020B00040F0B9808C4B1B78002B0CD10023FB73B4
:1020C00006E0FB7B894A0021D154FB7B0133FB7383
:1020D000FB7B312BF5D9864B1B780D2B0AD0824B1D
:1020E0001B785A1CD1B2804A11701A46804B19785D
:1020F0007E4B99547E4B1B78613B112B00F28D80F7
:1021000001A252F823F000BFA7210008D121000846
:102110001B2200081B22000851210008FB21000897
:102120001B2200081B2200081B2200081B2200089B
:102130001B2200081B2200081B2200081B2200088B
:102140001B2200081B2200081B2200087721000820
:10215000684B00221A70684B00221A80FFF712F8B1
:10216000664A02210020FFF783F8654A002101201A
:10217000FFF77EF852E05F4B01221A70FFF702F87A
:10218000604A00210020FFF773F85B4B1B881BB2ED
:102190001A460A210020FFF78BF85B4A0021012034
:1021A000FFF766F83AE0514804F0FEFD53EC102BBF
:1021B00010461946FEF718FD0346544A13603222B2
:1021C00000214A4804F038FE474B00221A7025E0EF
:1021D000464804F0E9FD53EC102B10461946FEF773
:1021E00003FD03464A4A1360322200213F4804F0AF
:1021F00023FE3D4B00221A7010E03C4804F0D7FD4E
:1022000003461A46434B1A6032220021374804F035
:1022100013FE354B00221A7000E000BF0122344942
:102220003D4803F028FE7B681A683C4B1B689A42C5
:1022300026D13B4B1B78023B3A4A134402223A49CF
:10224000184605F0D6FB0346002B02D1FFF770FEBF
:102250000CE07B681B685968314B1B785A1CD0B264
:102260002F4A10701A46C9B22E4B99542C4B1B782A
:102270001A462C4B134401221946284803F0FBFD53
:102280007B681A68294B1B689A4226D1284B1B7819
:10229000023B284A134402222349184605F0A9FBB1
:1022A0000346002B02D1FFF79FFE0CE07B681B6802
:1022B00059681F4B1B785A1CD0B21D4A10701A4621
:1022C000C9B21C4B99541A4B1B781A46194B13442C
:1022D00001221946154803F0CEFD00BF1037BD4658
:1022E00080BD00BF0010014026030020280300200D
:1022F0005C030020490200204400002010B50008C3
:1023000020B50008F4B40008FCB4000880030020E5
:1023100098030020B4030020440500208805002015
:10232000240300205C02002058B5000800050020AE
:1023300025030020C002002080B582B000AF786085
:102340007B681A68314B1B689A422AD12F4801F0EA
:1023500003FD03461AB22E4B1A802D4B1B881BB26D
:102360001A4640F2EE2302FB03F307EE903AF8EE32
:10237000E77A9FED287AC7EE876A16EE900AFEF795
:10238000E3F802460B464FF000002349FDF77CFFBF
:1023900002460B4610461946FEF726FC03461F4A26
:1023A00013607B681A681E4B1B689A422AD11C482E
:1023B00001F0D2FC03461AB21A4B1A80194B1B8843
:1023C0001BB21A464FF4167302FB03F307EE903A62
:1023D000F8EEE77A9FED0F7AC7EE876A16EE900A5D
:1023E000FEF7B2F802460B464FF000000E49FDF72B
:1023F0004BFF02460B4610461946FEF7F5FB034617
:102400000A4A136000BF0837BD4680BDCC030020D8
:102410004E02002000F07F450070874054020020EB
:10242000140400205002002000C082405802002006
:1024300080B582B000AF78607B681A68494B1B6832
:102440009A4269D1484B1B681846FEF77DF8024650
:102450000B46464805F042FA454B1B681846FEF706
:1024600073F802460B46434805F038FA424B1B8886
:102470001BB21946414805F031FA414B1B6818461A
:10248000FEF762F802460B463E4805F027FA3E4B3F
:102490001B681846FEF758F802460B463B4805F005
:1024A0001DFA3B4B1B6819463A4805F017FA3A4BA0
:1024B0001B781946394805F011FA2B4B1B68184652
:1024C000FEF742F802460B46354805F007FA284B5E
:1024D0001B681846FEF738F802460B46314805F0EF
:1024E000FDF9314B1B681846FEF72EF802460B46E5
:1024F0002E4805F0F3F92E4B1B681846FEF724F81A
:1025000002460B462B4805F0E9F91B4B1B881BB212
:102510001946294805F0E2F97B681A68274B1B68C1
:102520009A421BD11C4B1B78002B0CD001224FF47C
:102530008061234802F09AFA00224FF4805121482A
:1025400002F094FA0AE04FF480611D4802F0A7FA05
:1025500001224FF480511B4802F088FA00BF08376F
:10256000BD4680BD70040020680300205CB50008F3
:102570006C03002064B50008440000206CB500081E
:1025800080030020ACB4000898030020B8B4000811
:10259000B4030020C0B400084902002074B500084C
:1025A0007CB5000884B50008540200208CB50008F2
:1025B0005802002094B500089CB50008B80400201B
:1025C000000C02400004024080B483B000AF034618
:1025D000FB80FB88802B06D10B4B01221A700B4B22
:1025E00000221A7009E0FB88B3F5805F05D1074B24
:1025F00000221A70064B00221A8000BF0C37BD461D
:102600005DF8047B704700BF4802002049020020AB
:10261000440000200000000080B500AF01F0D4F8B5
:1026200000F0CCF900F026FC00F0D6FA00F0CEFB6A
:1026300000F02EFA00F0A0FB00F0F2FB00F07AFAB6
:1026400000F04CFB00F0FCFAFEF7CAFD012210215D
:10265000B34802F00BFAB34801F090F9B24801F028
:102660008DF90021B14801F0F4FE1021AF4801F0CE
:10267000F0FEAF4802F0EEFEAE4802F0EBFE0122A3
:10268000AD49AE4803F0F7FBAD4B1B781A46AD4B96
:10269000134401221946AC4803F0EDFBAB4B1B7809
:1026A0001A46AB4B134401221946AA4803F0E3FB38
:1026B000FEF768FDA84A02210020FEF7D9FD40F28E
:1026C000666300220021994801F015FF40F266631D
:1026D00000221021954801F00EFF4FF4FA6001F03E
:1026E000E5F8FEF76DFFFEF7C5FFFFF70BF9FFF703
:1026F000CDFAFFF79FFB994B1B7883F00103DBB208
:10270000002B00F04981964B1B78002B00F0B9801C
:10271000944B1B78002B00F0A28070E0FEF7E4FDE4
:10272000904B1B7883F00103DBB2002B0BD18E4B57
:1027300093ED007A8D4BD3ED007AB4EEE77AF1EEAB
:1027400010FAEBD40AE000BF08E0FEF783FE854BE9
:102750001B7883F00103DBB2002B0BD1844B93ED8C
:10276000007A844BD3ED007AB4EEE77AF1EE10FAFA
:10277000EBD408E000BF06E040F2CE430022102177
:102780006A4801F0B8FE7C4B1B681846FDF7DCFE7A
:1027900061A3D3E90023FEF7BFF90346002BEBD179
:1027A0004FF4006300221021604801F0A4FE40F2C3
:1027B0006663002200215D4801F09DFE6F4B1B887F
:1027C0001BB29BB201339BB21AB26C4B1A806C4A9B
:1027D00000210020FEF74CFD684B1B881BB21A46F7
:1027E0000A210020FEF764FD4FF4FA7001F05EF854
:1027F0005C4B1B7883F00103DBB2002B08D15F4BED
:102800001B881BB21A465F4B1B689A428FD300E0AD
:1028100000BF40F2CE4300221021444801F06BFE7D
:10282000642001F043F840F26663002200213F4833
:1028300001F061FE514B1B881BB21A46514B1B68BD
:102840009A427FF44EAFFEF79DFC4F4A00210020D4
:10285000FEF70EFD4FF4FA7001F028F841E740F260
:10286000CE4300221021314801F045FE642001F0E2
:102870001DF840F26663002200212C4801F03BFE67
:102880002FE7424B1B78002B3FF42BAFFFF7A4F947
:10289000FFF776FA3E4B1B68012B06D1FEF724FDAD
:1028A000FFF79AF9FFF76CFA15E0394B1B68022B1A
:1028B00011D12F4B93ED007A2E4BD3ED007AB4EE6D
:1028C000E77AF1EE10FA06D540F2666300220021A5
:1028D000164801F010FE2F4B1B68012B0FD1224B25
:1028E00093ED007A214BD3ED007AB4EEE77AF1EE66
:1028F00010FA04DBFEF7AEFDFFF742FA5AE0254B73
:102900001B68022B7FF4EDAE40F2666300221021BB
:10291000064801F0F0FDE4E69A99999999217240F0
:10292000000C0240CC030020140400205C040020B2
:1029300070040020B80400205C030020440500203F
:10294000240300205C0200208805002025030020CD
:10295000C002002000050020A4B5000848020020A5
:102960004C02002049020020840300208003002044
:102970009C030020980300205802002044000020FF
:10298000F4B40008B4030020B4B500084D020020E0
:10299000AC030020B003002040F2CE43002200210F
:1029A000054801F0A8FD40F26663002210210248AC
:1029B00001F0A1FD95E600BF5C04002080B594B055
:1029C00000AF07F1200330220021184604F034FA4A
:1029D00007F10C0300221A605A609A60DA601A61EB
:1029E0000023BB60284B1B6C274A43F080531364C1
:1029F000254B1B6C03F08053BB60BB6800237B60DE
:102A0000224B1B68214A43F4804313601F4B1B6811
:102A100003F480437B607B6802233B620123FB62FB
:102A200010233B630223BB630023FB6308233B6447
:102A3000A8237B640223BB640423FB6407F1200307
:102A4000184602F05FF80346002B01D000F036FB79
:102A50000F23FB6002233B6100237B614FF4A053F3
:102A6000BB614FF48053FB6107F10C03052118464D
:102A700002F0C0FA0346002B01D000F01FFB00BF9C
:102A80005037BD4680BD00BF003802400070004096
:102A900080B584B000AF3B4600221A605A609A604D
:102AA000DA60214B214A1A601F4B4FF400325A6002
:102AB0001D4B00229A601C4B00221A611A4B012206
:102AC0001A76194B002283F82020174B0022DA6275
:102AD000154B174A9A62144B0022DA60124B0122FE
:102AE000DA61114B002283F830200F4B01225A612A
:102AF0000D4800F0FFFE0346002B01D000F0DEFA87
:102B00000C233B6001237B600723BB603B461946D7
:102B1000054801F043F90346002B01D000F0CEFA3E
:102B200000BF1037BD4680BDCC030020002001400F
:102B30000100000F80B584B000AF3B4600221A6050
:102B40005A609A60DA60214B214A1A601F4B4FF499
:102B500000325A601D4B00229A601C4B00221A6101
:102B60001A4B01221A76194B002283F82020174BAA
:102B70000022DA62154B174A9A62144B0022DA607F
:102B8000124B0122DA61114B002283F830200F4BE7
:102B900001225A610D4800F0ADFE0346002B01D022
:102BA00000F08CFA0D233B6001237B600723BB60A0
:102BB0003B461946054801F0F1F80346002B01D0C9
:102BC00000F07CFA00BF1037BD4680BD1404002021
:102BD000002101400100000F80B582B000AF3B46EC
:102BE00000221A605A60144B144A1A60124801F00D
:102BF0000EFC0346002B01D000F060FA00233B607E
:102C000000237B603B46002219460B4801F098FCEC
:102C10000346002B01D000F051FA3B461022194622
:102C2000054801F08DFC0346002B01D000F046FA68
:102C300000BF0837BD4680BD5C0400200074004022
:102C400080B586B000AF07F1080300221A605A6011
:102C50009A60DA603B4600221A605A601D4B1E4A99
:102C60001A601C4B44F2A0125A601A4B00229A6060
:102C7000184BC722DA60174B00221A61154B8022CD
:102C80009A61144802F096FB0346002B01D000F035
:102C900015FA4FF48053BB6007F1080319460D483D
:102CA00002F050FD0346002B01D000F007FA00238C
:102CB0003B6000237B603B461946064802F06CFFF0
:102CC0000346002B01D000F0F9F900BF1837BD46CC
:102CD00080BD00BF700400200004004080B586B0B5
:102CE00000AF07F1080300221A605A609A60DA60A8
:102CF0003B4600221A605A601D4B1E4A1A601C4B4C
:102D000044F2A0125A601A4B00229A60184B40F607
:102D1000B732DA60164B00221A61154B80229A6195
:102D2000134802F047FB0346002B01D000F0C6F920
:102D30004FF48053BB6007F1080319460C4802F0BA
:102D400001FD0346002B01D000F0B8F900233B60E1
:102D500000237B603B461946054802F01DFF0346F1
:102D6000002B01D000F0AAF900BF1837BD4680BD86
:102D7000B80400200008004080B500AF114B124A93
:102D80001A60104B4FF416525A600E4B00229A6094
:102D90000C4B0022DA600B4B00221A61094B0C220B
:102DA0005A61084B00229A61064B0022DA610548FD
:102DB00002F082FF0346002B01D000F07FF900BF34
:102DC00080BD00BF00050020004C004080B500AF72
:102DD000114B124A1A60104B4FF4E1325A600E4BFD
:102DE00000229A600C4B0022DA600B4B00221A6121
:102DF000094B0C225A61084B00229A61064B0022B3
:102E0000DA61054802F058FF0346002B01D000F0BC
:102E100055F900BF80BD00BF4405002000100140EF
:102E200080B500AF114B124A1A60104B4FF4165286
:102E30005A600E4B00229A600C4B0022DA600B4B5A
:102E400000221A61094B0C225A61084B00229A6138
:102E5000064B0022DA61054802F02EFF0346002BE4
:102E600001D000F02BF900BF80BD00BF8805002015
:102E70000048004080B58AB000AF07F1140300227B
:102E80001A605A609A60DA601A6100233B61854BD0
:102E90001B6B844A43F010031363824B1B6B03F0DC
:102EA00010033B613B690023FB607E4B1B6B7D4A3B
:102EB00043F0040313637B4B1B6B03F00403FB60C1
:102EC000FB680023BB60774B1B6B764A43F0010322
:102ED0001363744B1B6B03F00103BB60BB680023DF
:102EE0007B60704B1B6B6F4A43F0020313636D4BA7
:102EF0001B6B03F002037B607B6800233B60694B24
:102F00001B6B684A43F008031363664B1B6B03F0AB
:102F100008033B603B68002248F20801624801F068
:102F2000A5FD00224FF48471604801F09FFD01224D
:102F30004FF480515E4801F099FD01224FF4806109
:102F40005C4801F093FD00224FF6FF01594801F063
:102F50008DFD00224FF47071574801F087FD00226B
:102F60002821534801F082FD48F208037B610123C8
:102F7000BB610023FB6100233B6207F11403194688
:102F8000494801F0BFFBC7237B610023BB610023DD
:102F9000FB6107F114031946444801F0B3FB4FF4F9
:102FA00084737B610123BB610023FB6100233B62CF
:102FB00007F1140319463D4801F0A4FB10237B617F
:102FC0000023BB610023FB6107F1140319463A4853
:102FD00001F098FB04237B610023BB610023FB61AC
:102FE00007F114031946324801F08CFB4FF4845367
:102FF0007B614FF40413BB610123FB6107F11403F0
:103000001946294801F07EFB4FF43C537B610023B5
:10301000BB610023FB6107F114031946224801F04C
:1030200071FB41F228037B610123BB610023FB613B
:1030300000233B6207F1140319461D4801F062FBAF
:103040004FF6FF437B610123BB610023FB6100233B
:103050003B6207F114031946164801F053FB4FF485
:1030600070737B610123BB610023FB6100233B6222
:1030700007F114031946104801F044FB0022002117
:10308000172001F08EF9172001F0A7F90022002186
:10309000282001F086F9282001F09FF900BF283789
:1030A000BD4680BD003802400010024000000240D2
:1030B00000040240000C02400008024080B400AF4F
:1030C00072B600BFFEE7000080B483B000AF0023FB
:1030D0007B60104B5B6C0F4A43F4804353640D4B91
:1030E0005B6C03F480437B607B6800233B60094B8F
:1030F0001B6C084A43F080531364064B1B6C03F0AF
:1031000080533B603B6800BF0C37BD465DF8047BD5
:10311000704700BF0038024080B58CB000AF7860C7
:1031200007F11C0300221A605A609A60DA601A6183
:103130007B681B68364A934230D10023BB61354B14
:103140005B6C344A43F480735364324B5B6C03F41E
:103150008073BB61BB6900237B612E4B1B6B2D4AC7
:1031600043F0040313632B4B1B6B03F004037B61DD
:103170007B690423FB6103233B6200237B6207F12D
:103180001C031946244801F0BDFA00220021122038
:1031900001F007F9122001F020F934E07B681B6888
:1031A0001E4A93422FD100233B611A4B5B6C194A94
:1031B00043F400735364174B5B6C03F400733B617F
:1031C0003B690023FB60134B1B6B124A43F0040363
:1031D0001363104B1B6B03F00403FB60FB680823B5
:1031E000FB6103233B6200237B6207F11C0319464A
:1031F000094801F087FA00220021122001F0D1F8DD
:10320000122001F0EAF800BF3037BD4680BD00BF94
:103210000020014000380240000802400021014027
:1032200080B58AB000AF786007F1140300221A60FD
:103230005A609A60DA601A617B681B68174A934289
:1032400027D100233B61164B1B6C154A43F00053FA
:103250001364134B1B6C03F000533B613B69002369
:10326000FB600F4B1B6B0E4A43F0010313630C4BC7
:103270001B6B03F00103FB60FB6830237B610323BE
:10328000BB610023FB6107F114031946054801F0F7
:1032900039FA00BF2837BD4680BD00BF007400402A
:1032A000003802400000024080B584B000AF786072
:1032B0007B681B681C4A934216D10023FB601B4BA2
:1032C0001B6C1A4A43F002031364184B1B6C03F087
:1032D0000203FB60FB68002201211D2001F061F860
:1032E0001D2001F07AF81AE07B681B68104A9342AF
:1032F00015D10023BB600D4B1B6C0C4A43F004033B
:1033000013640A4B1B6C03F00403BB60BB68002210
:1033100002211E2001F045F81E2001F05EF800BFDA
:103320001037BD4680BD00BF000400400038024099
:103330000008004080B58EB000AF786007F124032C
:1033400000221A605A609A60DA601A617B681B6812
:10335000584A934235D100233B62574B1B6C564A67
:1033600043F400231364544B1B6C03F400233B62AF
:103370003B6A0023FB61504B1B6B4F4A43F0040335
:1033800013634D4B1B6B03F00403FB61FB694FF4AC
:1033900040637B620223BB620023FB6203233B6327
:1033A00008237B6307F124031946444801F0AAF976
:1033B00000220021342000F0F4FF342001F00DF849
:1033C00074E07B681B683E4A934235D10023BB61A1
:1033D000394B5B6C384A43F010035364364B5B6CDB
:1033E00003F01003BB61BB6900237B61324B1B6B95
:1033F000314A43F0010313632F4B1B6B03F00103AE
:103400007B617B694FF4C0637B620223BB62002354
:10341000FB6203233B6307237B6307F12403194605
:10342000284801F06FF900220021252000F0B9FFA3
:10343000252000F0D2FF39E07B681B68224A9342C6
:1034400034D100233B611C4B1B6C1B4A43F480238B
:103450001364194B1B6C03F480233B613B6900230D
:10346000FB60154B1B6B144A43F002031363124BB2
:103470001B6B03F00203FB60FB684FF440637B624D
:103480000223BB620023FB6203233B6307237B63AE
:1034900007F1240319460D4801F034F900220021F8
:1034A000272000F07EFF272000F097FF00BF38376D
:1034B000BD4680BD004C004000380240000802407C
:1034C000001001400000024000480040000402409B
:1034D00080B400AFFEE780B400AFFEE780B400AF79
:1034E000FEE780B400AFFEE780B400AFFEE780B433
:1034F00000AF00BFBD465DF8047B704780B400AFED
:1035000000BFBD465DF8047B704780B400AF00BFCC
:10351000BD465DF8047B704780B500AF00F0A6F9AA
:1035200000BF80BD80B500AF034800F005FB034835
:1035300000F002FB00BF80BDCC030020140400207B
:1035400080B500AF802001F0C5FA00BF80BD00004B
:1035500080B500AF024801F0EDFF00BF80BD00BFA5
:103560007004002080B500AF024801F0E3FF00BF07
:1035700080BD00BFB804002080B500AF024802F053
:10358000ABFC00BF80BD00BF4405002080B500AF8C
:10359000024802F0A1FC00BF80BD00BF88050020EA
:1035A00080B500AF4FF4805001F094FA00BF80BDA9
:1035B00080B500AF024802F08FFC00BF80BD00BFA5
:1035C0000005002080B400AF01231846BD465DF819
:1035D000047B704780B582B000AF7860396003F03B
:1035E000EBFB034616221A604FF0FF3318460837EC
:1035F000BD4680BD80B582B000AF78604FF0FF312E
:103600007868FFF7E7FFFEE780B586B000AFF860A7
:10361000B9607A6000237B610AE0AFF30080014665
:10362000BB685A1CBA60CAB21A707B6901337B61ED
:103630007A697B689A42F0DB7B6818461837BD468A
:1036400080BD80B586B000AFF860B9607A600023B5
:103650007B6109E0BB685A1CBA601B781846FEF70C
:1036600055FC7B6901337B617A697B689A42F1DBA7
:103670007B6818461837BD4680BD80B483B000AF64
:1036800078604FF0FF3318460C37BD465DF8047B79
:10369000704780B483B000AF786039603B684FF406
:1036A00000525A60002318460C37BD465DF8047B73
:1036B000704780B483B000AF7860012318460C37A0
:1036C000BD465DF8047B704780B485B000AFF860FC
:1036D000B9607A60002318461437BD465DF8047B54
:1036E0007047000080B586B000AF7860144A154B73
:1036F000D31A7B617B693B61134B1B68002B02D1A2
:10370000114B124A1A60104B1A687B6813443A69CD
:103710009A4207D203F050FB03460C221A604FF086
:10372000FF3309E0084B1B68FB60074B1A687B6896
:103730001344054A1360FB6818461837BD4680BD20
:103740000000022000040000CC050020E805002055
:1037500080B400AF064BD3F88830054A43F47003B9
:10376000C2F8883000BFBD465DF8047B704700BFDB
:1037700000ED00E0DFF834D00D480E490E4A00237A
:1037800002E0D458C4500433C4188C42F9D30B4A15
:103790000B4C002301E013600432A242FBD3FFF77D
:1037A000D7FF03F00FFBFEF737FF70470000022042
:1037B000000000202C020020F8BA00082C02002093
:1037C000E4050020FEE7000080B500AF0E4B1B684B
:1037D0000D4A43F4007313600B4B1B680A4A43F411
:1037E00080631360084B1B68074A43F480731360BF
:1037F000032000F0CBFD0F2000F008F8FFF764FC79
:103800000023184680BD00BF003C024080B582B056
:1038100000AF7860124B1A68124B1B7819464FF4B0
:103820007A73B3FBF1F3B2FBF3F3184600F0E3FD58
:103830000346002B01D001230EE07B680F2B0AD832
:10384000002279684FF0FF3000F0ABFD064A7B683C
:103850001360002300E0012318460837BD4680BDF1
:103860004C000020540000205000002080B400AF25
:10387000064B1B781A46064B1B681344044A136018
:1038800000BFBD465DF8047B704700BF54000020B8
:10389000D005002080B400AF034B1B681846BD461E
:1038A0005DF8047B704700BFD005002080B584B070
:1038B00000AF7860FFF7EEFFB8607B68FB60FB68E5
:1038C000B3F1FF3F05D00A4B1B781A46FB6813443F
:1038D000FB6000BFFFF7DEFF0246BB68D31AFA6841
:1038E0009A42F7D800BF00BF1037BD4680BD00BF69
:1038F0005400002080B584B000AF78600023FB73D3
:103900007B68002B01D1012333E07B681B6C002B0B
:1039100009D17868FFF700FC7B6800225A647B6855
:10392000002283F83C207B681B6C03F01003002B03
:1039300018D17B681B6C23F4885323F0020343F0F7
:1039400002027B681A64786800F04AFB7B680022F8
:103950005A647B681B6C23F0030343F001027B680D
:103960001A6401E00123FB737B68002283F83C208A
:10397000FB7B18461037BD4680BD000080B485B083
:1039800000AF78600023BB607B6893F83C30012B6C
:1039900001D10223BDE07B68012283F83C207B68D3
:1039A0001B689B6803F00103012B18D07B681B6820
:1039B0009A687B681B6842F001029A60584B1B684A
:1039C000584AA2FB03239A0C13465B001344BB60C6
:1039D00002E0BB68013BBB60BB68002BF9D17B6890
:1039E0001B689B6803F00103012B40F085807B6816
:1039F0001B6C23F4E06323F0010343F480727B68C3
:103A00001A647B681B685B6803F48063002B07D033
:103A10007B681B6C23F4405343F480527B681A6428
:103A20007B681B6C03F48053B3F5805F06D17B6821
:103A30005B6C23F006027B685A6402E07B6800221C
:103A40005A647B68002283F83C20374BFB607B681C
:103A50001B686FF022021A607B681B685B687A68DB
:103A6000126843F0806343F020035360FB685B6897
:103A700003F01F03002B2AD17B681B682B4A93425B
:103A800015D07B681B682A4A934205D1264B5B6898
:103A900003F01F03002B0AD07B681B68254A934262
:103AA00036D1214B5B6803F01003002B30D17B68CB
:103AB0001B689B6803F04053002B29D17B681B686F
:103AC0009A687B681B6842F080429A6020E07B68BD
:103AD0001B68164A93421BD17B681B689B6803F0E6
:103AE0004053002B14D17B681B689A687B681B6865
:103AF00042F080429A600BE07B681B6C43F010023E
:103B00007B681A647B685B6C43F001027B685A64D3
:103B1000002318461437BD465DF8047B704700BF8C
:103B20004C00002083DE1B430023014000200140A5
:103B3000002101400022014080B586B000AF7860CE
:103B400000237B6100233B617B681B681B68FB6073
:103B50007B681B685B68BB60FB6803F002037B61EA
:103B6000BB6803F020033B617B69002B49D03B69B4
:103B7000002B46D07B681B6C03F01003002B05D193
:103B80007B681B6C43F400727B681A647B681B685B
:103B90009B6803F04053002B2BD17B681B7E002BCE
:103BA00027D17B681B68DB6A03F47003002B06D007
:103BB0007B681B689B6803F48063002B19D17B68CA
:103BC0001B685A687B681B6822F020025A607B6879
:103BD0001B6C23F480727B681A647B681B6C03F493
:103BE0008053002B05D17B681B6C43F001027B687E
:103BF0001A647868FEF7A0FB7B681B686FF01202FE
:103C00001A60FB6803F004037B61BB6803F0800368
:103C10003B617B69002B57D03B69002B54D07B68FC
:103C20001B6C03F01003002B05D17B681B6C43F465
:103C300000527B681A647B681B689B6803F440131E
:103C4000002B39D17B681B689B6B03F44013002B5E
:103C500006D07B681B689B6803F48063002B2BD124
:103C60007B681B685B6803F48063002B24D17B684E
:103C70001B689B6803F04053002B1DD17B681B7EA3
:103C8000002B19D17B681B685A687B681B6822F07F
:103C900080025A607B681B6C23F480527B681A6434
:103CA0007B681B6C03F48073002B05D17B681B6C55
:103CB00043F001027B681A64786800F08DFA7B6833
:103CC0001B686FF00C021A60FB6803F001037B6154
:103CD000BB6803F040033B617B69002B17D03B6955
:103CE000002B14D07B681B681B6803F00103012BB9
:103CF0000DD17B681B6C43F480327B681A64786852
:103D000000F037F87B681B686FF001021A60FB68EF
:103D100003F020037B61BB6803F080633B617B6938
:103D2000002B15D03B69002B12D07B685B6C43F0F5
:103D300002027B685A647B681B686FF020021A607D
:103D4000786800F020F87B681B686FF020021A602A
:103D500000BF1837BD4680BD80B483B000AF786027
:103D60007B681B68DB6C18460C37BD465DF8047B2E
:103D7000704780B483B000AF786000BF0C37BD4699
:103D80005DF8047B704780B483B000AF786000BFFB
:103D90000C37BD465DF8047B7047000080B485B0E9
:103DA00000AF786039600023BB607B6893F83C30DB
:103DB000012B01D1022305E17B68012283F83C201D
:103DC0003B681B68092B25D97B681B68D9683B6851
:103DD0001B689BB21A4613465B0013441E3B072226
:103DE00002FA03F3DA437B681B680A40DA607B68F7
:103DF0001B68D9683B689A683B681B689BB2184689
:103E000003465B0003441E3B9A407B681B680A43E1
:103E1000DA6022E07B681B6819693B681B689BB20B
:103E20001A4613465B001344072202FA03F3DA43EF
:103E30007B681B680A401A617B681B6819693B68CC
:103E40009A683B681B689BB2184603465B000344B4
:103E50009A407B681B680A431A613B685B68062BC3
:103E600024D87B681B68596B3B685A6813469B00D3
:103E70001344053B1F2202FA03F3DA437B681B68F5
:103E80000A405A637B681B68596B3B681B689BB28E
:103E900018463B685A6813469B001344053B00FADA
:103EA00003F27B681B680A435A634CE03B685B681B
:103EB0000C2B24D87B681B68196B3B685A68134627
:103EC0009B001344233B1F2202FA03F3DA437B686F
:103ED0001B680A401A637B681B68196B3B681B6888
:103EE0009BB218463B685A6813469B001344233B19
:103EF00000FA03F27B681B680A431A6323E07B68BD
:103F00001B68D96A3B685A6813469B001344413BBF
:103F10001F2202FA03F3DA437B681B680A40DA6265
:103F20007B681B68D96A3B681B689BB218463B6874
:103F30005A6813469B001344413B00FA03F27B6826
:103F40001B680A43DA62224BFB607B681B68214ACC
:103F5000934209D13B681B68122B05D1FB685B6853
:103F600043F48002FB685A607B681B68194A9342DD
:103F700023D13B681B68102B03D03B681B68112BB7
:103F80001BD1FB685B6843F40002FB685A603B6826
:103F90001B68102B11D1104B1B68104AA2FB032386
:103FA0009A0C13469B0013445B00BB6002E0BB68A5
:103FB000013BBB60BB68002BF9D17B68002283F812
:103FC0003C20002318461437BD465DF8047B70473B
:103FD00000230140002001404C00002083DE1B43F1
:103FE00080B485B000AF7860794BFB60FB685B689C
:103FF00023F44032FB685A60FB685A687B685B6850
:104000001A43FB685A607B681B685A687B681B68A8
:1040100022F480725A607B681B6859687B681B6950
:104020001A027B681B680A435A607B681B685A68DF
:104030007B681B6822F040725A607B681B68596875
:104040007B689A687B681B680A435A607B681B68B8
:104050009A687B681B6822F400629A607B681B6820
:1040600099687B68DA687B681B680A439A607B689A
:104070009B6A584A934222D07B681B689A687B6887
:104080001B6822F070629A607B681B6899687B6885
:104090009A6A7B681B680A439A607B681B689A6807
:1040A0007B681B6822F040529A607B681B689968A5
:1040B0007B68DA6A7B681B680A439A600FE07B685A
:1040C0001B689A687B681B6822F070629A607B6844
:1040D0001B689A687B681B6822F040529A607B6874
:1040E0001B689A687B681B6822F002029A607B68F2
:1040F0001B6899687B681B7E5A007B681B680A43B3
:104100009A607B6893F82030002B1BD07B681B687B
:104110005A687B681B6842F400625A607B681B68BF
:104120005A687B681B6822F460425A607B681B688F
:1041300059687B685B6A013B5A037B681B680A43CA
:104140005A6007E07B681B685A687B681B6822F42A
:1041500000625A607B681B68DA6A7B681B6822F41D
:104160007002DA627B681B68D96A7B68DB69013B95
:104170001A057B681B680A43DA627B681B689A68C9
:104180007B681B6822F400729A607B681B689968E0
:104190007B6893F830305A027B681B680A439A6048
:1041A0007B681B689A687B681B6822F480629A604F
:1041B0007B681B6899687B685B699A027B681B68EF
:1041C0000A439A6000BF1437BD465DF8047B704710
:1041D000002301400100000F80B483B000AF78607D
:1041E00000BF0C37BD465DF8047B704780B485B0D6
:1041F00000AF78607B6803F00703FB600C4BDB6863
:10420000BB60BA684FF6FF031340BB60FB681A023D
:10421000BB68134343F0BF6343F40033BB60044AFD
:10422000BB68D36000BF1437BD465DF8047B7047A0
:1042300000ED00E080B400AF044BDB681B0A03F024
:1042400007031846BD465DF8047B704700ED00E0AB
:1042500080B483B000AF0346FB7197F90730002BA1
:104260000BDBFB7903F01F02074997F907305B0965
:10427000012000FA02F241F8232000BF0C37BD46AE
:104280005DF8047B704700BF00E100E080B483B0BC
:1042900000AF03463960FB7197F90730002B0ADB4A
:1042A0003B68DAB20C4997F907301201D2B20B44DD
:1042B00083F800230AE03B68DAB20849FB7903F08F
:1042C0000F03043B1201D2B20B441A7600BF0C3725
:1042D000BD465DF8047B704700E100E000ED00E0C2
:1042E00080B489B000AFF860B9607A60FB6803F011
:1042F0000703FB61FB69C3F10703042B28BF0423F9
:10430000BB61FB690433062B02D9FB69033B00E068
:1043100000237B614FF0FF32BB6902FA03F3DA43FB
:10432000BB681A407B699A404FF0FF317B6901FA04
:1043300003F3D9437B680B40134318462437BD462B
:104340005DF8047B7047000080B582B000AF7860F4
:104350007B68013BB3F1807F01D301230FE00A4A60
:104360007B68013B53600F214FF0FF30FFF78EFF5A
:10437000054B00229A60044B07221A60002318465E
:104380000837BD4680BD00BF10E000E080B582B0B8
:1043900000AF78607868FFF729FF00BF0837BD4697
:1043A00080BD80B586B000AF0346B9607A60FB730C
:1043B00000237B61FFF73EFF78617A68B96878690E
:1043C000FFF78EFF024697F90F3011461846FFF7A8
:1043D0005DFF00BF1837BD4680BD80B582B000AF1D
:1043E0000346FB7197F907301846FFF731FF00BF0E
:1043F0000837BD4680BD80B582B000AF7860786870
:10440000FFF7A2FF034618460837BD4680BD80B5BA
:1044100082B000AF78607B68002B01D1012314E0EB
:104420007B681B79DBB2002B05D17B6800225A71B7
:104430007868FEF7F5FE7B6802221A717B6800221D
:104440001A617B6801221A71002318460837BD469D
:1044500080BD80B483B000AF786039607B685B79E1
:10446000012B01D1022340E07B6801225A717B6855
:1044700002221A717B681B6819683B6803F01003FD
:1044800001229A407B681B680A431A603B68002B34
:104490000FD17B681B681B6803F03C033C2B1DD1CC
:1044A0007B681B685A687B681B6842F001025A608F
:1044B00014E07B681B681B6803F470123B6803F010
:1044C00010033C2101FA03F39A4207D17B681B6871
:1044D0005A687B681B6842F002025A607B680122BE
:1044E0001A717B6800225A71002318460C37BD46AA
:1044F0005DF8047B704780B487B000AFF860B960A6
:104500007A603B6000237B61FB681B687B61BB6852
:10451000002B05D17A697B68134408337B6104E082
:104520007A697B68134414337B617B691A463B6864
:104530001360002318461C37BD465DF8047B7047A6
:1045400080B487B000AFF860B9607A60FB685B79CF
:10455000012B01D102233CE0FB6801225A71FB6868
:1045600002221A71FB681B681B687B617B6803F081
:10457000100340F6FE7202FA03F3DB437A6913403C
:104580007B61BB681A68BB685B6813433B617B68EF
:1045900003F010033A6902FA03F37A6913437B616B
:1045A000FB681B687A691A60FB681B6819687B687E
:1045B00003F01003C02202FA03F3DA43FB681B681E
:1045C0000A401A60FB6801221A71FB6800225A71C6
:1045D000002318461C37BD465DF8047B704780B544
:1045E00084B000AF78607B689B6DFB60FFF752F989
:1045F000B8607B6893F83530DBB2022B08D07B685B
:1046000080225A657B68002283F83420012352E01F
:104610007B681B681A687B681B6822F016021A60A8
:104620007B681B685A697B681B6822F080025A61AC
:104630007B681B6C002B03D17B689B6C002B07D025
:104640007B681B681A687B681B6822F008021A6086
:104650007B681B681A687B681B6822F001021A607D
:1046600013E0FFF717F90246BB68D31A052B0CD9E4
:104670007B6820225A657B68032283F835207B689B
:10468000002283F83420032315E07B681B681B6835
:1046900003F00103002BE4D17B68DB6D3F229A40DD
:1046A000FB689A607B68012283F835207B680022D2
:1046B00083F83420002318461037BD4680BD80B4EF
:1046C00083B000AF78607B6893F83530DBB2022BA3
:1046D00004D07B6880225A6501230CE07B680522A8
:1046E00083F835207B681B681A687B681B6822F09A
:1046F00001021A60002318460C37BD465DF8047BA2
:104700007047000080B489B000AF78603960002342
:104710007B6100233B610023BB610023FB616BE1F4
:104720000122FB6902FA03F37B613B681B687A692B
:1047300013403B613A697B699A4240F05A813B6879
:104740005B6803F00303012B05D03B685B6803F053
:104750000303022B30D17B689B68BB61FB695B0064
:10476000032202FA03F3DB43BA691340BB613B68DF
:10477000DA68FB695B0002FA03F3BA691343BB61B1
:104780007B68BA699A607B685B68BB610122FB69E0
:1047900002FA03F3DB43BA691340BB613B685B6811
:1047A0001B0903F00102FB6902FA03F3BA69134320
:1047B000BB617B68BA695A603B685B6803F00303BE
:1047C000032B17D07B68DB68BB61FB695B000322AE
:1047D00002FA03F3DB43BA691340BB613B689A6892
:1047E000FB695B0002FA03F3BA691343BB617B68A0
:1047F000BA69DA603B685B6803F00303022B23D1DC
:10480000FB69DA087B68083253F82230BB61FB6928
:1048100003F007039B000F2202FA03F3DB43BA699C
:104820001340BB613B681A69FB6903F007039B00F7
:1048300002FA03F3BA691343BB61FB69DA087B68C8
:104840000832B96943F822107B681B68BB61FB69B9
:104850005B00032202FA03F3DB43BA691340BB6136
:104860003B685B6803F00302FB695B0002FA03F339
:10487000BA691343BB617B68BA691A603B685B68BD
:1048800003F44033002B00F0B4800023FB60604B46
:104890005B6C5F4A43F4804353645D4B5B6C03F491
:1048A0008043FB60FB685B4AFB699B08023352F85C
:1048B0002330BB61FB6903F003039B000F2202FA64
:1048C00003F3DB43BA691340BB617B68524A9342EE
:1048D0002BD07B68514A934225D07B68504A934243
:1048E0001FD07B684F4A934219D07B684E4A93424F
:1048F00013D07B684D4A93420DD07B684C4A93425B
:1049000007D07B684B4A934201D107230EE008236E
:104910000CE006230AE0052308E0042306E0032355
:1049200004E0022302E0012300E00023FA6902F020
:10493000030292009340BA691343BB613549FB6996
:104940009B080233BA6941F823203B4B9B68BB614B
:104950003B69DB43BA691340BB613B685B6803F4A6
:104960008013002B03D0BA693B691343BB61324A01
:10497000BB699360304BDB68BB613B69DB43BA6961
:104980001340BB613B685B6803F40013002B03D04A
:10499000BA693B691343BB61274ABB69D360264BA5
:1049A0005B68BB613B69DB43BA691340BB613B6831
:1049B0005B6803F40033002B03D0BA693B691343EF
:1049C000BB611D4ABB6953601B4B1B68BB613B69E4
:1049D000DB43BA691340BB613B685B6803F4803317
:1049E000002B03D0BA693B691343BB61124ABB6910
:1049F0001360FB690133FB61FB690F2B7FF690AEFF
:104A000000BF00BF2437BD465DF8047B704700BF80
:104A1000003802400038014000000240000402401B
:104A200000080240000C0240001002400014024046
:104A300000180240001C0240003C014080B485B0D8
:104A400000AF78600B467B807B681A697B881340D7
:104A5000002B02D00123FB7301E00023FB73FB7BDF
:104A600018461437BD465DF8047B704780B483B0A8
:104A700000AF78600B467B8013467B707B78002B01
:104A800003D07A887B689A6103E07B881A047B688C
:104A90009A6100BF0C37BD465DF8047B704780B457
:104AA00085B000AF78600B467B807B685B69FB60FC
:104AB0007A88FB6813401A04FB68D9437B880B4053
:104AC0001A437B689A6100BF1437BD465DF8047BCA
:104AD0007047000080B582B000AF0346FB80084BF2
:104AE0005A69FB881340002B06D0054AFB885361A6
:104AF000FB881846FDF768FD00BF0837BD4680BD3E
:104B0000003C014080B586B000AF78607B68002B28
:104B100001D1012367E27B681B6803F00103002BCE
:104B200075D0884B9B6803F00C03042B0CD0854B8D
:104B30009B6803F00C03082B12D1824B5B6803F4D3
:104B40008003B3F5800F0BD17E4B1B6803F4003359
:104B5000002B5BD07B685B68002B57D1012342E2BE
:104B60007B685B68B3F5803F06D1764B1B68754A5E
:104B700043F4803313601DE07B685B68B3F5A02FBE
:104B80000CD1704B1B686F4A43F4802313606D4B4C
:104B90001B686C4A43F4803313600BE0694B1B685D
:104BA000684A23F480331360664B1B68654A23F41C
:104BB000802313607B685B68002B13D0FEF76AFECE
:104BC000386108E0FEF766FE02463B69D31A642BA3
:104BD00001D9032307E25B4B1B6803F40033002B6E
:104BE000F0D014E0FEF756FE386108E0FEF752FE02
:104BF00002463B69D31A642B01D90323F3E1514BDD
:104C00001B6803F40033002BF0D100E000BF7B6889
:104C10001B6803F00203002B63D04A4B9B6803F030
:104C20000C03002B0BD0474B9B6803F00C03082BA5
:104C30001CD1444B5B6803F48003002B16D1414B1D
:104C40001B6803F00203002B05D07B68DB68012B97
:104C500001D00123C7E13B4B1B6823F0F8027B68BE
:104C60001B69DB00374913430B603AE07B68DB6864
:104C7000002B20D0344B01221A60FEF70BFE386166
:104C800008E0FEF707FE02463B69D31A022B01D962
:104C90000323A8E12B4B1B6803F00203002BF0D089
:104CA000284B1B6823F0F8027B681B69DB00254951
:104CB00013430B6015E0244B00221A60FEF7EAFD57
:104CC000386108E0FEF7E6FD02463B69D31A022B85
:104CD00001D9032387E11B4B1B6803F00203002B60
:104CE000F0D17B681B6803F00803002B36D07B688B
:104CF0005B69002B16D0154B01221A60FEF7CAFD26
:104D0000386108E0FEF7C6FD02463B69D31A022B64
:104D100001D9032367E10B4B5B6F03F00203002B08
:104D2000F0D01BE0094B00221A60FEF7B3FD38619A
:104D30000EE0FEF7AFFD02463B69D31A022B07D9FE
:104D4000032350E10038024000004742800E4742F2
:104D5000884B5B6F03F00203002BEAD17B681B6872
:104D600003F00403002B00F097800023FB75814BB8
:104D70001B6C03F08053002B0FD10023BB607D4BD5
:104D80001B6C7C4A43F0805313647A4B1B6C03F01A
:104D90008053BB60BB680123FB75774B1B6803F432
:104DA0008073002B18D1744B1B68734A43F48073D3
:104DB0001360FEF76FFD386108E0FEF76BFD0246F9
:104DC0003B69D31A022B01D903230CE16A4B1B6800
:104DD00003F48073002BF0D07B689B68012B06D115
:104DE000644B1B6F634A43F0010313671CE07B684D
:104DF0009B68052B0CD15F4B1B6F5E4A43F004038D
:104E000013675C4B1B6F5B4A43F0010313670BE0B6
:104E1000584B1B6F574A23F001031367554B1B6F09
:104E2000544A23F0040313677B689B68002B15D05A
:104E3000FEF730FD38610AE0FEF72CFD02463B69C3
:104E4000D31A41F28832934201D90323CBE0494B74
:104E50001B6F03F00203002BEED014E0FEF71AFDE7
:104E600038610AE0FEF716FD02463B69D31A41F2AB
:104E70008832934201D90323B5E03E4B1B6F03F008
:104E80000203002BEED1FB7D012B05D1394B1B6CAE
:104E9000384A23F0805313647B689B69002B00F031
:104EA000A180344B9B6803F00C03082B5CD07B681B
:104EB0009B69022B41D1314B00221A60FEF7EAFCBC
:104EC000386108E0FEF7E6FC02463B69D31A022B84
:104ED00001D9032387E0274B1B6803F00073002BE5
:104EE000F0D17B68DA697B681B6A1A437B685B6A6E
:104EF0009B011A437B689B6A5B08013B1B041A43B6
:104F00007B68DB6A1B061B4913434B601B4B01226A
:104F10001A60FEF7BFFC386108E0FEF7BBFC0246F2
:104F20003B69D31A022B01D903235CE0114B1B68A8
:104F300003F00073002BF0D054E0104B00221A60F5
:104F4000FEF7A8FC386108E0FEF7A4FC02463B69C6
:104F5000D31A022B01D9032345E0064B1B6803F04B
:104F60000073002BF0D13DE07B689B69012B07D1DA
:104F7000012338E0003802400070004060004742E2
:104F80001B4B5B68FB607B689B69012B28D0FB682F
:104F900003F480027B68DB699A4221D1FB6803F04D
:104FA0003F027B681B6A9A421AD1FA6847F6C073BF
:104FB00013407A68526A9201934211D1FB6803F45C
:104FC00040327B689B6A5B08013B1B049A4207D115
:104FD000FB6803F070627B68DB6A1B069A4201D0B3
:104FE000012300E0002318461837BD4680BD00BFEE
:104FF0000038024080B584B000AF786039607B68CB
:10500000002B01D10123CCE0684B1B6803F00703A0
:105010003A689A420CD9654B3A68D2B21A70634B1F
:105020001B6803F007033A689A4201D00123B8E0F5
:105030007B681B6803F00203002B20D07B681B6891
:1050400003F00403002B05D0594B9B68584A43F4E6
:10505000E05393607B681B6803F00803002B05D0C6
:10506000534B9B68524A43F460439360504B9B6898
:1050700023F0F0027B689B684D4913438B607B688B
:105080001B6803F00103002B44D07B685B68012B95
:1050900007D1474B1B6803F40033002B19D10123C0
:1050A0007FE07B685B68022B03D07B685B68032B27
:1050B00007D13F4B1B6803F00073002B09D101237C
:1050C0006FE03B4B1B6803F00203002B01D101236F
:1050D00067E0374B9B6823F003027B685B683449C9
:1050E00013438B60FEF7D6FBF8600AE0FEF7D2FBB5
:1050F0000246FB68D31A41F28832934201D9032356
:105100004FE02B4B9B6803F00C027B685B689B00B5
:105110009A42EBD1254B1B6803F007033A689A4289
:105120000CD2224B3A68D2B21A70204B1B6803F0A3
:1051300007033A689A4201D0012332E07B681B687A
:1051400003F00403002B08D0194B9B6823F4E052B2
:105150007B68DB68164913438B607B681B6803F030
:105160000803002B09D0124B9B6823F460427B6834
:105170001B69DB000E4913438B6000F021F80246E7
:105180000B4B9B681B0903F00F030A49CB5C22FA07
:1051900003F3094A1360094B1B681846FEF736FBF8
:1051A000002318461037BD4680BD00BF003C0240BA
:1051B00000380240C8B500084C0000205000002014
:1051C0002DE9B04F90B000AF00237B630023FB6359
:1051D00000233B630023BB63594B9B6803F00C0324
:1051E000082B0DD0082B00F2A180002B02D0042B3D
:1051F00003D09BE0534BBB639BE0534BBB6398E0F6
:105200004F4B5B6803F03F037B634D4B5B6803F4DC
:105210008003002B28D04A4B5B689B0900223B622D
:105220007A623B6AC3F308000021474B03FB01F29B
:10523000002300FB03F31344434AA0FB0212FA626B
:105240000A46BA62FA6A1344FB627B6B0022BB61B6
:10525000FA61D7E90623D7E90A01FBF715FD0246F3
:105260000B461346FB6353E0354B5B689B090022FA
:105270003B617A613B69C3F3080A4FF0000B524669
:105280005B464FF000004FF00001590141EAD26146
:10529000500102460B46B2EB0A0863EB0B094FF0D4
:1052A00000024FF000034FEA891343EA98634FEA84
:1052B0008812B2EB080463EB09054FF000024FF0CF
:1052C0000003EB0043EA5473E20014461D4614EB5E
:1052D0000A033B6045EB0B037B604FF000024FF08D
:1052E0000003D7E9004529468B02214643EA915342
:1052F00021468A02104619467B6B0022BB60FA6089
:10530000D7E90223FBF7C0FC02460B461346FB63BA
:105310000B4B5B681B0C03F0030301335B003B6327
:10532000FA6B3B6BB2FBF3F3BB6302E0054BBB6371
:1053300000BFBB6B18464037BD46BDE8B08F00BF0D
:10534000003802400024F40040787D0180B400AFB2
:10535000034B1B681846BD465DF8047B704700BFD1
:105360004C00002080B500AFFFF7F0FF0246054B70
:105370009B689B0A03F007030349CB5C22FA03F303
:10538000184680BD00380240D8B5000880B500AF8F
:10539000FFF7DCFF0246054B9B685B0B03F007033E
:1053A0000349CB5C22FA03F3184680BD0038024063
:1053B000D8B5000880B582B000AF78607B68002B5C
:1053C00001D1012341E07B6893F83D30DBB2002B33
:1053D00006D17B68002283F83C207868FDF764FFE3
:1053E0007B68022283F83D207B681A687B6804335F
:1053F0001946104600F096FA7B68012283F8462091
:105400007B68012283F83E207B68012283F83F20DD
:105410007B68012283F840207B68012283F84120C9
:105420007B68012283F842207B68012283F84320B5
:105430007B68012283F844207B68012283F84520A1
:105440007B68012283F83D20002318460837BD46BB
:1054500080BD000080B485B000AF78607B6893F8B1
:105460003D30DBB2012B01D001234EE07B680222EC
:1054700083F83D207B681B68DA687B681B6842F014
:105480000102DA607B681B68234A934222D07B6862
:105490001B68B3F1804F1DD07B681B681F4A934285
:1054A00018D07B681B681E4A934213D07B681B6828
:1054B0001C4A93420ED07B681B681B4A934209D05A
:1054C0007B681B68194A934204D07B681B68184AA2
:1054D000934211D17B681B689B6803F00703FB6054
:1054E000FB68062B10D07B681B681A687B681B68FA
:1054F00042F001021A6007E07B681B681A687B684B
:105500001B6842F001021A60002318461437BD469A
:105510005DF8047B704700BF0000014000040040BC
:1055200000080040000C0040000401400040014021
:105530000018004080B582B000AF78607B681B68BF
:105540001B6903F00203022B22D17B681B68DB6816
:1055500003F00203022B1BD17B681B686FF0020271
:105560001A617B6801221A777B681B689B6903F0CC
:105570000303002B03D0786800F0B5F905E07868E4
:1055800000F0A7F9786800F0B8F97B6800221A7774
:105590007B681B681B6903F00403042B22D17B6822
:1055A0001B68DB6803F00403042B1BD17B681B68BA
:1055B0006FF004021A617B6802221A777B681B680D
:1055C0009B6903F44073002B03D0786800F08BF9DB
:1055D00005E0786800F07DF9786800F08EF97B6866
:1055E00000221A777B681B681B6903F00803082BED
:1055F00022D17B681B68DB6803F00803082B1BD1F2
:105600007B681B686FF008021A617B6804221A77B6
:105610007B681B68DB6903F00303002B03D0786809
:1056200000F061F905E0786800F053F9786800F05F
:1056300064F97B6800221A777B681B681B6903F09A
:105640001003102B22D17B681B68DB6803F010036A
:10565000102B1BD17B681B686FF010021A617B68EE
:1056600008221A777B681B68DB6903F44073002B00
:1056700003D0786800F037F905E0786800F029F980
:10568000786800F03AF97B6800221A777B681B681B
:105690001B6903F00103012B0ED17B681B68DB68DB
:1056A00003F00103012B07D17B681B686FF0010237
:1056B0001A617868FCF7BCFE7B681B681B6903F005
:1056C0008003802B0ED17B681B68DB6803F08003AE
:1056D000802B07D17B681B686FF080021A617868A5
:1056E00000F0E0FA7B681B681B6903F04003402B65
:1056F0000ED17B681B68DB6803F04003402B07D1A9
:105700007B681B686FF040021A61786800F0FFF850
:105710007B681B681B6903F02003202B0ED17B687C
:105720001B68DB6803F02003202B07D17B681B6814
:105730006FF020021A61786800F0AAFA00BF0837FB
:10574000BD4680BD80B584B000AF7860396000236D
:10575000FB737B6893F83C30012B01D10223B4E04A
:105760007B68012283F83C207B68022283F83D207D
:105770007B681B689B68BB60BB6823F07703BB60DA
:10578000BB6823F47F43BB607B681B68BA689A6080
:105790003B681B68B3F5005F3ED0B3F5005F00F2D5
:1057A0008780B3F5805F00F08680B3F5805F7FD897
:1057B000702B1AD0702B7BD8602B50D0602B77D8F1
:1057C000502B3CD0502B73D8402B58D0402B6FD847
:1057D000302B64D0302B6BD8202B60D0202B67D897
:1057E000002B5CD0102B5AD062E07B6818683B68B5
:1057F00099683B685A683B68DB6800F0ADF97B68E4
:105800001B689B68BB60BB6843F07703BB607B6829
:105810001B68BA689A604FE07B6818683B689968B3
:105820003B685A683B68DB6800F096F97B681B6848
:105830009A687B681B6842F480429A603CE07B680F
:1058400018683B6859683B68DB681A4600F00AF93B
:105850007B681B685021184600F063F92CE07B68D8
:1058600018683B6859683B68DB681A4600F029F9FC
:105870007B681B686021184600F053F91CE07B68C8
:1058800018683B6859683B68DB681A4600F0EAF81C
:105890007B681B684021184600F043F90CE07B68E8
:1058A0001A683B681B681946104600F03AF903E095
:1058B0000123FB7300E000BF7B68012283F83D20D9
:1058C0007B68002283F83C20FB7B18461037BD46DE
:1058D00080BD80B483B000AF786000BF0C37BD4698
:1058E0005DF8047B704780B483B000AF786000BF80
:1058F0000C37BD465DF8047B704780B483B000AFC1
:10590000786000BF0C37BD465DF8047B704780B4FB
:1059100083B000AF786000BF0C37BD465DF8047BF4
:105920007047000080B485B000AF786039607B6854
:105930001B68FB607B68404A934213D07B68B3F1DD
:10594000804F0FD07B683D4A93420BD07B683C4A26
:10595000934207D07B683B4A934203D07B683A4A24
:10596000934208D1FB6823F07003FB603B685B68DF
:10597000FA681343FB607B682F4A93422BD07B6805
:10598000B3F1804F27D07B682C4A934223D07B68A9
:105990002B4A93421FD07B682A4A93421BD07B68D4
:1059A000294A934217D07B68284A934213D07B68D8
:1059B000274A93420FD07B68264A93420BD07B68DC
:1059C000254A934207D07B68244A934203D07B68E0
:1059D000234A934208D1FB6823F44073FB603B6881
:1059E000DB68FA681343FB60FB6823F080023B68C6
:1059F0005B691343FB607B68FA681A603B689A68CE
:105A00007B68DA623B681A687B689A627B680A4A3C
:105A1000934203D07B680C4A934203D13B681A69D6
:105A20007B681A637B6801225A6100BF1437BD4648
:105A30005DF8047B704700BF000001400004004097
:105A400000080040000C00400004014000400140FC
:105A5000004401400048014000180040001C004084
:105A60000020004080B487B000AFF860B9607A6071
:105A7000FB681B6A7B61FB681B6A23F00102FB6801
:105A80001A62FB689B693B613B6923F0F0033B6151
:105A90007B681B013A6913433B617B6923F00A036E
:105AA0007B617A69BB6813437B61FB683A699A61E1
:105AB000FB687A691A6200BF1C37BD465DF8047B3B
:105AC000704780B487B000AFF860B9607A60FB6857
:105AD0001B6A23F01002FB681A62FB689B697B61FA
